{
  "abi": [
    {
      "type": "function",
      "name": "UPGRADE_INTERFACE_VERSION",
      "inputs": [],
      "outputs": [
        {
          "name": "",
          "type": "string",
          "internalType": "string"
        }
      ],
      "stateMutability": "view"
    },
    {
      "type": "function",
      "name": "allowance",
      "inputs": [
        {
          "name": "owner",
          "type": "address",
          "internalType": "address"
        },
        {
          "name": "spender",
          "type": "address",
          "internalType": "address"
        }
      ],
      "outputs": [
        {
          "name": "",
          "type": "uint256",
          "internalType": "uint256"
        }
      ],
      "stateMutability": "view"
    },
    {
      "type": "function",
      "name": "approve",
      "inputs": [
        {
          "name": "spender",
          "type": "address",
          "internalType": "address"
        },
        {
          "name": "value",
          "type": "uint256",
          "internalType": "uint256"
        }
      ],
      "outputs": [
        {
          "name": "",
          "type": "bool",
          "internalType": "bool"
        }
      ],
      "stateMutability": "nonpayable"
    },
    {
      "type": "function",
      "name": "balanceOf",
      "inputs": [
        {
          "name": "account",
          "type": "address",
          "internalType": "address"
        }
      ],
      "outputs": [
        {
          "name": "",
          "type": "uint256",
          "internalType": "uint256"
        }
      ],
      "stateMutability": "view"
    },
    {
      "type": "function",
      "name": "burnFrom",
      "inputs": [
        {
          "name": "from",
          "type": "address",
          "internalType": "address"
        },
        {
          "name": "amount",
          "type": "uint256",
          "internalType": "uint256"
        }
      ],
      "outputs": [],
      "stateMutability": "nonpayable"
    },
    {
      "type": "function",
      "name": "decimals",
      "inputs": [],
      "outputs": [
        {
          "name": "",
          "type": "uint8",
          "internalType": "uint8"
        }
      ],
      "stateMutability": "view"
    },
    {
      "type": "function",
      "name": "initialize",
      "inputs": [],
      "outputs": [],
      "stateMutability": "nonpayable"
    },
    {
      "type": "function",
      "name": "minerContract",
      "inputs": [],
      "outputs": [
        {
          "name": "",
          "type": "address",
          "internalType": "address"
        }
      ],
      "stateMutability": "view"
    },
    {
      "type": "function",
      "name": "mint",
      "inputs": [
        {
          "name": "to",
          "type": "address",
          "internalType": "address"
        },
        {
          "name": "amount",
          "type": "uint256",
          "internalType": "uint256"
        }
      ],
      "outputs": [],
      "stateMutability": "nonpayable"
    },
    {
      "type": "function",
      "name": "name",
      "inputs": [],
      "outputs": [
        {
          "name": "",
          "type": "string",
          "internalType": "string"
        }
      ],
      "stateMutability": "view"
    },
    {
      "type": "function",
      "name": "owner",
      "inputs": [],
      "outputs": [
        {
          "name": "",
          "type": "address",
          "internalType": "address"
        }
      ],
      "stateMutability": "view"
    },
    {
      "type": "function",
      "name": "pause",
      "inputs": [],
      "outputs": [],
      "stateMutability": "nonpayable"
    },
    {
      "type": "function",
      "name": "paused",
      "inputs": [],
      "outputs": [
        {
          "name": "",
          "type": "bool",
          "internalType": "bool"
        }
      ],
      "stateMutability": "view"
    },
    {
      "type": "function",
      "name": "proxiableUUID",
      "inputs": [],
      "outputs": [
        {
          "name": "",
          "type": "bytes32",
          "internalType": "bytes32"
        }
      ],
      "stateMutability": "view"
    },
    {
      "type": "function",
      "name": "renounceOwnership",
      "inputs": [],
      "outputs": [],
      "stateMutability": "nonpayable"
    },
    {
      "type": "function",
      "name": "setMinerContract",
      "inputs": [
        {
          "name": "_miner",
          "type": "address",
          "internalType": "address"
        }
      ],
      "outputs": [],
      "stateMutability": "nonpayable"
    },
    {
      "type": "function",
      "name": "symbol",
      "inputs": [],
      "outputs": [
        {
          "name": "",
          "type": "string",
          "internalType": "string"
        }
      ],
      "stateMutability": "view"
    },
    {
      "type": "function",
      "name": "totalSupply",
      "inputs": [],
      "outputs": [
        {
          "name": "",
          "type": "uint256",
          "internalType": "uint256"
        }
      ],
      "stateMutability": "view"
    },
    {
      "type": "function",
      "name": "transfer",
      "inputs": [
        {
          "name": "to",
          "type": "address",
          "internalType": "address"
        },
        {
          "name": "value",
          "type": "uint256",
          "internalType": "uint256"
        }
      ],
      "outputs": [
        {
          "name": "",
          "type": "bool",
          "internalType": "bool"
        }
      ],
      "stateMutability": "nonpayable"
    },
    {
      "type": "function",
      "name": "transferFrom",
      "inputs": [
        {
          "name": "from",
          "type": "address",
          "internalType": "address"
        },
        {
          "name": "to",
          "type": "address",
          "internalType": "address"
        },
        {
          "name": "value",
          "type": "uint256",
          "internalType": "uint256"
        }
      ],
      "outputs": [
        {
          "name": "",
          "type": "bool",
          "internalType": "bool"
        }
      ],
      "stateMutability": "nonpayable"
    },
    {
      "type": "function",
      "name": "transferOwnership",
      "inputs": [
        {
          "name": "newOwner",
          "type": "address",
          "internalType": "address"
        }
      ],
      "outputs": [],
      "stateMutability": "nonpayable"
    },
    {
      "type": "function",
      "name": "unpause",
      "inputs": [],
      "outputs": [],
      "stateMutability": "nonpayable"
    },
    {
      "type": "function",
      "name": "upgradeToAndCall",
      "inputs": [
        {
          "name": "newImplementation",
          "type": "address",
          "internalType": "address"
        },
        {
          "name": "data",
          "type": "bytes",
          "internalType": "bytes"
        }
      ],
      "outputs": [],
      "stateMutability": "payable"
    },
    {
      "type": "event",
      "name": "Approval",
      "inputs": [
        {
          "name": "owner",
          "type": "address",
          "indexed": true,
          "internalType": "address"
        },
        {
          "name": "spender",
          "type": "address",
          "indexed": true,
          "internalType": "address"
        },
        {
          "name": "value",
          "type": "uint256",
          "indexed": false,
          "internalType": "uint256"
        }
      ],
      "anonymous": false
    },
    {
      "type": "event",
      "name": "Initialized",
      "inputs": [
        {
          "name": "version",
          "type": "uint64",
          "indexed": false,
          "internalType": "uint64"
        }
      ],
      "anonymous": false
    },
    {
      "type": "event",
      "name": "OwnershipTransferred",
      "inputs": [
        {
          "name": "previousOwner",
          "type": "address",
          "indexed": true,
          "internalType": "address"
        },
        {
          "name": "newOwner",
          "type": "address",
          "indexed": true,
          "internalType": "address"
        }
      ],
      "anonymous": false
    },
    {
      "type": "event",
      "name": "Paused",
      "inputs": [
        {
          "name": "account",
          "type": "address",
          "indexed": false,
          "internalType": "address"
        }
      ],
      "anonymous": false
    },
    {
      "type": "event",
      "name": "Transfer",
      "inputs": [
        {
          "name": "from",
          "type": "address",
          "indexed": true,
          "internalType": "address"
        },
        {
          "name": "to",
          "type": "address",
          "indexed": true,
          "internalType": "address"
        },
        {
          "name": "value",
          "type": "uint256",
          "indexed": false,
          "internalType": "uint256"
        }
      ],
      "anonymous": false
    },
    {
      "type": "event",
      "name": "Unpaused",
      "inputs": [
        {
          "name": "account",
          "type": "address",
          "indexed": false,
          "internalType": "address"
        }
      ],
      "anonymous": false
    },
    {
      "type": "event",
      "name": "Upgraded",
      "inputs": [
        {
          "name": "implementation",
          "type": "address",
          "indexed": true,
          "internalType": "address"
        }
      ],
      "anonymous": false
    },
    {
      "type": "error",
      "name": "AddressEmptyCode",
      "inputs": [
        {
          "name": "target",
          "type": "address",
          "internalType": "address"
        }
      ]
    },
    {
      "type": "error",
      "name": "ERC1967InvalidImplementation",
      "inputs": [
        {
          "name": "implementation",
          "type": "address",
          "internalType": "address"
        }
      ]
    },
    {
      "type": "error",
      "name": "ERC1967NonPayable",
      "inputs": []
    },
    {
      "type": "error",
      "name": "ERC20InsufficientAllowance",
      "inputs": [
        {
          "name": "spender",
          "type": "address",
          "internalType": "address"
        },
        {
          "name": "allowance",
          "type": "uint256",
          "internalType": "uint256"
        },
        {
          "name": "needed",
          "type": "uint256",
          "internalType": "uint256"
        }
      ]
    },
    {
      "type": "error",
      "name": "ERC20InsufficientBalance",
      "inputs": [
        {
          "name": "sender",
          "type": "address",
          "internalType": "address"
        },
        {
          "name": "balance",
          "type": "uint256",
          "internalType": "uint256"
        },
        {
          "name": "needed",
          "type": "uint256",
          "internalType": "uint256"
        }
      ]
    },
    {
      "type": "error",
      "name": "ERC20InvalidApprover",
      "inputs": [
        {
          "name": "approver",
          "type": "address",
          "internalType": "address"
        }
      ]
    },
    {
      "type": "error",
      "name": "ERC20InvalidReceiver",
      "inputs": [
        {
          "name": "receiver",
          "type": "address",
          "internalType": "address"
        }
      ]
    },
    {
      "type": "error",
      "name": "ERC20InvalidSender",
      "inputs": [
        {
          "name": "sender",
          "type": "address",
          "internalType": "address"
        }
      ]
    },
    {
      "type": "error",
      "name": "ERC20InvalidSpender",
      "inputs": [
        {
          "name": "spender",
          "type": "address",
          "internalType": "address"
        }
      ]
    },
    {
      "type": "error",
      "name": "EnforcedPause",
      "inputs": []
    },
    {
      "type": "error",
      "name": "ExpectedPause",
      "inputs": []
    },
    {
      "type": "error",
      "name": "FailedCall",
      "inputs": []
    },
    {
      "type": "error",
      "name": "InvalidInitialization",
      "inputs": []
    },
    {
      "type": "error",
      "name": "NotInitializing",
      "inputs": []
    },
    {
      "type": "error",
      "name": "OwnableInvalidOwner",
      "inputs": [
        {
          "name": "owner",
          "type": "address",
          "internalType": "address"
        }
      ]
    },
    {
      "type": "error",
      "name": "OwnableUnauthorizedAccount",
      "inputs": [
        {
          "name": "account",
          "type": "address",
          "internalType": "address"
        }
      ]
    },
    {
      "type": "error",
      "name": "UUPSUnauthorizedCallContext",
      "inputs": []
    },
    {
      "type": "error",
      "name": "UUPSUnsupportedProxiableUUID",
      "inputs": [
        {
          "name": "slot",
          "type": "bytes32",
          "internalType": "bytes32"
        }
      ]
    }
  ],
  "bytecode": {
    "object": "0x60a06040523073ffffffffffffffffffffffffffffffffffffffff1660809073ffffffffffffffffffffffffffffffffffffffff168152503480156041575f5ffd5b506080516128416100685f395f81816110e20152818161113701526112f101526128415ff3fe60806040526004361061013f575f3560e01c806370a08231116100b557806395d89b411161006e57806395d89b41146103df578063a9059cbb14610409578063ad3cb1cc14610445578063dd62ed3e1461046f578063ee09c748146104ab578063f2fde38b146104d55761013f565b806370a082311461030f578063715018a61461034b57806379cc6790146103615780638129fc1c146103895780638456cb591461039f5780638da5cb5b146103b55761013f565b80633f4ba83a116101075780633f4ba83a1461023957806340c10f191461024f5780634f1ef2861461027757806352d1902d146102935780635c5aba68146102bd5780635c975abb146102e55761013f565b806306fdde0314610143578063095ea7b31461016d57806318160ddd146101a957806323b872dd146101d3578063313ce5671461020f575b5f5ffd5b34801561014e575f5ffd5b506101576104fd565b6040516101649190611eec565b60405180910390f35b348015610178575f5ffd5b50610193600480360381019061018e9190611faa565b61059b565b6040516101a09190612002565b60405180910390f35b3480156101b4575f5ffd5b506101bd6105bd565b6040516101ca919061202a565b60405180910390f35b3480156101de575f5ffd5b506101f960048036038101906101f49190612043565b6105d4565b6040516102069190612002565b60405180910390f35b34801561021a575f5ffd5b50610223610602565b60405161023091906120ae565b60405180910390f35b348015610244575f5ffd5b5061024d61060a565b005b34801561025a575f5ffd5b5061027560048036038101906102709190611faa565b61061c565b005b610291600480360381019061028c91906121f3565b6106c0565b005b34801561029e575f5ffd5b506102a76106df565b6040516102b49190612265565b60405180910390f35b3480156102c8575f5ffd5b506102e360048036038101906102de919061227e565b610710565b005b3480156102f0575f5ffd5b506102f96107c8565b6040516103069190612002565b60405180910390f35b34801561031a575f5ffd5b506103356004803603810190610330919061227e565b6107ea565b604051610342919061202a565b60405180910390f35b348015610356575f5ffd5b5061035f61083d565b005b34801561036c575f5ffd5b5061038760048036038101906103829190611faa565b610850565b005b348015610394575f5ffd5b5061039d6108f4565b005b3480156103aa575f5ffd5b506103b3610af0565b005b3480156103c0575f5ffd5b506103c9610b02565b6040516103d691906122b8565b60405180910390f35b3480156103ea575f5ffd5b506103f3610b37565b6040516104009190611eec565b60405180910390f35b348015610414575f5ffd5b5061042f600480360381019061042a9190611faa565b610bd5565b60405161043c9190612002565b60405180910390f35b348015610450575f5ffd5b50610459610bf7565b6040516104669190611eec565b60405180910390f35b34801561047a575f5ffd5b50610495600480360381019061049091906122d1565b610c30565b6040516104a2919061202a565b60405180910390f35b3480156104b6575f5ffd5b506104bf610cc0565b6040516104cc91906122b8565b60405180910390f35b3480156104e0575f5ffd5b506104fb60048036038101906104f6919061227e565b610ce4565b005b60605f610508610d68565b90508060030180546105199061233c565b80601f01602080910402602001604051908101604052809291908181526020018280546105459061233c565b80156105905780601f1061056757610100808354040283529160200191610590565b820191905f5260205f20905b81548152906001019060200180831161057357829003601f168201915b505050505091505090565b5f5f6105a5610d8f565b90506105b2818585610d96565b600191505092915050565b5f5f6105c7610d68565b9050806002015491505090565b5f5f6105de610d8f565b90506105eb858285610da8565b6105f6858585610e3b565b60019150509392505050565b5f6012905090565b610612610f2b565b61061a610fb2565b565b610624611020565b5f5f9054906101000a900473ffffffffffffffffffffffffffffffffffffffff1673ffffffffffffffffffffffffffffffffffffffff163373ffffffffffffffffffffffffffffffffffffffff16146106b2576040517f08c379a00000000000000000000000000000000000000000000000000000000081526004016106a9906123b6565b60405180910390fd5b6106bc8282611061565b5050565b6106c86110e0565b6106d1826111c6565b6106db82826111d1565b5050565b5f6106e86112ef565b7f360894a13ba1a3210667c828492db98dca3e2076cc3735a920a3ca505d382bbc5f1b905090565b610718610f2b565b5f73ffffffffffffffffffffffffffffffffffffffff168173ffffffffffffffffffffffffffffffffffffffff1603610786576040517f08c379a000000000000000000000000000000000000000000000000000000000815260040161077d9061241e565b60405180910390fd5b805f5f6101000a81548173ffffffffffffffffffffffffffffffffffffffff021916908373ffffffffffffffffffffffffffffffffffffffff16021790555050565b5f5f6107d2611376565b9050805f015f9054906101000a900460ff1691505090565b5f5f6107f4610d68565b9050805f015f8473ffffffffffffffffffffffffffffffffffffffff1673ffffffffffffffffffffffffffffffffffffffff1681526020019081526020015f2054915050919050565b610845610f2b565b61084e5f61139d565b565b610858611020565b5f5f9054906101000a900473ffffffffffffffffffffffffffffffffffffffff1673ffffffffffffffffffffffffffffffffffffffff163373ffffffffffffffffffffffffffffffffffffffff16146108e6576040517f08c379a00000000000000000000000000000000000000000000000000000000081526004016108dd906123b6565b60405180910390fd5b6108f0828261146e565b5050565b5f6108fd6114ed565b90505f815f0160089054906101000a900460ff161590505f825f015f9054906101000a900467ffffffffffffffff1690505f5f8267ffffffffffffffff161480156109455750825b90505f60018367ffffffffffffffff1614801561097857505f3073ffffffffffffffffffffffffffffffffffffffff163b145b905081158015610986575080155b156109bd576040517ff92ee8a900000000000000000000000000000000000000000000000000000000815260040160405180910390fd5b6001855f015f6101000a81548167ffffffffffffffff021916908367ffffffffffffffff1602179055508315610a0a576001855f0160086101000a81548160ff0219169083151502179055505b610a7e6040518060400160405280600881526020017f476f42656e6f69740000000000000000000000000000000000000000000000008152506040518060400160405280600381526020017f47424e0000000000000000000000000000000000000000000000000000000000815250611500565b610a8733611516565b610a8f61152a565b8315610ae9575f855f0160086101000a81548160ff0219169083151502179055507fc7f505b2f371ae2175ee4913f4499e1f2633a7b5936321eed1cdaeb6115181d26001604051610ae09190612491565b60405180910390a15b5050505050565b610af8610f2b565b610b00611534565b565b5f5f610b0c6115a3565b9050805f015f9054906101000a900473ffffffffffffffffffffffffffffffffffffffff1691505090565b60605f610b42610d68565b9050806004018054610b539061233c565b80601f0160208091040260200160405190810160405280929190818152602001828054610b7f9061233c565b8015610bca5780601f10610ba157610100808354040283529160200191610bca565b820191905f5260205f20905b815481529060010190602001808311610bad57829003601f168201915b505050505091505090565b5f5f610bdf610d8f565b9050610bec818585610e3b565b600191505092915050565b6040518060400160405280600581526020017f352e302e3000000000000000000000000000000000000000000000000000000081525081565b5f5f610c3a610d68565b9050806001015f8573ffffffffffffffffffffffffffffffffffffffff1673ffffffffffffffffffffffffffffffffffffffff1681526020019081526020015f205f8473ffffffffffffffffffffffffffffffffffffffff1673ffffffffffffffffffffffffffffffffffffffff1681526020019081526020015f205491505092915050565b5f5f9054906101000a900473ffffffffffffffffffffffffffffffffffffffff1681565b610cec610f2b565b5f73ffffffffffffffffffffffffffffffffffffffff168173ffffffffffffffffffffffffffffffffffffffff1603610d5c575f6040517f1e4fbdf7000000000000000000000000000000000000000000000000000000008152600401610d5391906122b8565b60405180910390fd5b610d658161139d565b50565b5f7f52c63247e1f47db19d5ce0460030c497f067ca4cebf71ba98eeadabe20bace00905090565b5f33905090565b610da383838360016115ca565b505050565b5f610db38484610c30565b90507fffffffffffffffffffffffffffffffffffffffffffffffffffffffffffffffff811015610e355781811015610e26578281836040517ffb8f41b2000000000000000000000000000000000000000000000000000000008152600401610e1d939291906124aa565b60405180910390fd5b610e3484848484035f6115ca565b5b50505050565b5f73ffffffffffffffffffffffffffffffffffffffff168373ffffffffffffffffffffffffffffffffffffffff1603610eab575f6040517f96c6fd1e000000000000000000000000000000000000000000000000000000008152600401610ea291906122b8565b60405180910390fd5b5f73ffffffffffffffffffffffffffffffffffffffff168273ffffffffffffffffffffffffffffffffffffffff1603610f1b575f6040517fec442f05000000000000000000000000000000000000000000000000000000008152600401610f1291906122b8565b60405180910390fd5b610f268383836117a7565b505050565b610f33610d8f565b73ffffffffffffffffffffffffffffffffffffffff16610f51610b02565b73ffffffffffffffffffffffffffffffffffffffff1614610fb057610f74610d8f565b6040517f118cdaa7000000000000000000000000000000000000000000000000000000008152600401610fa791906122b8565b60405180910390fd5b565b610fba6117bf565b5f610fc3611376565b90505f815f015f6101000a81548160ff0219169083151502179055507f5db9ee0a495bf2e6ff9c91a7834c1ba4fdd244a5e8aa4e537bd38aeae4b073aa611008610d8f565b60405161101591906122b8565b60405180910390a150565b6110286107c8565b1561105f576040517fd93c066500000000000000000000000000000000000000000000000000000000815260040160405180910390fd5b565b5f73ffffffffffffffffffffffffffffffffffffffff168273ffffffffffffffffffffffffffffffffffffffff16036110d1575f6040517fec442f050000000000000000000000000000000000000000000000000000000081526004016110c891906122b8565b60405180910390fd5b6110dc5f83836117a7565b5050565b7f000000000000000000000000000000000000000000000000000000000000000073ffffffffffffffffffffffffffffffffffffffff163073ffffffffffffffffffffffffffffffffffffffff16148061118d57507f000000000000000000000000000000000000000000000000000000000000000073ffffffffffffffffffffffffffffffffffffffff166111746117ff565b73ffffffffffffffffffffffffffffffffffffffff1614155b156111c4576040517fe07c8dba00000000000000000000000000000000000000000000000000000000815260040160405180910390fd5b565b6111ce610f2b565b50565b8173ffffffffffffffffffffffffffffffffffffffff166352d1902d6040518163ffffffff1660e01b8152600401602060405180830381865afa92505050801561123957506040513d601f19601f820116820180604052508101906112369190612509565b60015b61127a57816040517f4c9c8ce300000000000000000000000000000000000000000000000000000000815260040161127191906122b8565b60405180910390fd5b7f360894a13ba1a3210667c828492db98dca3e2076cc3735a920a3ca505d382bbc5f1b81146112e057806040517faa1d49a40000000000000000000000000000000000000000000000000000000081526004016112d79190612265565b60405180910390fd5b6112ea8383611852565b505050565b7f000000000000000000000000000000000000000000000000000000000000000073ffffffffffffffffffffffffffffffffffffffff163073ffffffffffffffffffffffffffffffffffffffff1614611374576040517fe07c8dba00000000000000000000000000000000000000000000000000000000815260040160405180910390fd5b565b5f7fcd5ed15c6e187e77e9aee88184c21f4f2182ab5827cb3b7e07fbedcd63f03300905090565b5f6113a66115a3565b90505f815f015f9054906101000a900473ffffffffffffffffffffffffffffffffffffffff16905082825f015f6101000a81548173ffffffffffffffffffffffffffffffffffffffff021916908373ffffffffffffffffffffffffffffffffffffffff1602179055508273ffffffffffffffffffffffffffffffffffffffff168173ffffffffffffffffffffffffffffffffffffffff167f8be0079c531659141344cd1fd0a4f28419497f9722a3daafe3b4186f6b6457e060405160405180910390a3505050565b5f73ffffffffffffffffffffffffffffffffffffffff168273ffffffffffffffffffffffffffffffffffffffff16036114de575f6040517f96c6fd1e0000000000000000000000000000000000000000000000000000000081526004016114d591906122b8565b60405180910390fd5b6114e9825f836117a7565b5050565b5f5f6114f76118c4565b90508091505090565b6115086118ed565b611512828261192d565b5050565b61151e6118ed565b61152781611969565b50565b6115326118ed565b565b61153c611020565b5f611545611376565b90506001815f015f6101000a81548160ff0219169083151502179055507f62e78cea01bee320cd4e420270b5ea74000d11b0c9f74754ebdbfc544b05a25861158b610d8f565b60405161159891906122b8565b60405180910390a150565b5f7f9016d09d72d40fdae2fd8ceac6b6234c7706214fd39c1cd1e609a0528c199300905090565b5f6115d3610d68565b90505f73ffffffffffffffffffffffffffffffffffffffff168573ffffffffffffffffffffffffffffffffffffffff1603611645575f6040517fe602df0500000000000000000000000000000000000000000000000000000000815260040161163c91906122b8565b60405180910390fd5b5f73ffffffffffffffffffffffffffffffffffffffff168473ffffffffffffffffffffffffffffffffffffffff16036116b5575f6040517f94280d620000000000000000000000000000000000000000000000000000000081526004016116ac91906122b8565b60405180910390fd5b82816001015f8773ffffffffffffffffffffffffffffffffffffffff1673ffffffffffffffffffffffffffffffffffffffff1681526020019081526020015f205f8673ffffffffffffffffffffffffffffffffffffffff1673ffffffffffffffffffffffffffffffffffffffff1681526020019081526020015f208190555081156117a0578373ffffffffffffffffffffffffffffffffffffffff168573ffffffffffffffffffffffffffffffffffffffff167f8c5be1e5ebec7d5bd14f71427d1e84f3dd0314c0f7b2291e5b200ac8c7c3b92585604051611797919061202a565b60405180910390a35b5050505050565b6117af611020565b6117ba8383836119ed565b505050565b6117c76107c8565b6117fd576040517f8dfc202b00000000000000000000000000000000000000000000000000000000815260040160405180910390fd5b565b5f61182b7f360894a13ba1a3210667c828492db98dca3e2076cc3735a920a3ca505d382bbc5f1b611c1c565b5f015f9054906101000a900473ffffffffffffffffffffffffffffffffffffffff16905090565b61185b82611c25565b8173ffffffffffffffffffffffffffffffffffffffff167fbc7cd75a20ee27fd9adebab32041f755214dbc6bffa90cc0225b39da2e5c2d3b60405160405180910390a25f815111156118b7576118b18282611cee565b506118c0565b6118bf611ddf565b5b5050565b5f7ff0c57e16840df040f15088dc2f81fe391c3923bec73e23a9662efc9c229c6a005f1b905090565b6118f5611e1b565b61192b576040517fd7e6bcf800000000000000000000000000000000000000000000000000000000815260040160405180910390fd5b565b6119356118ed565b5f61193e610d68565b90508281600301908161195191906126dc565b508181600401908161196391906126dc565b50505050565b6119716118ed565b5f73ffffffffffffffffffffffffffffffffffffffff168173ffffffffffffffffffffffffffffffffffffffff16036119e1575f6040517f1e4fbdf70000000000000000000000000000000000000000000000000000000081526004016119d891906122b8565b60405180910390fd5b6119ea8161139d565b50565b5f6119f6610d68565b90505f73ffffffffffffffffffffffffffffffffffffffff168473ffffffffffffffffffffffffffffffffffffffff1603611a4a5781816002015f828254611a3e91906127d8565b92505081905550611b1c565b5f815f015f8673ffffffffffffffffffffffffffffffffffffffff1673ffffffffffffffffffffffffffffffffffffffff1681526020019081526020015f2054905082811015611ad5578481846040517fe450d38c000000000000000000000000000000000000000000000000000000008152600401611acc939291906124aa565b60405180910390fd5b828103825f015f8773ffffffffffffffffffffffffffffffffffffffff1673ffffffffffffffffffffffffffffffffffffffff1681526020019081526020015f2081905550505b5f73ffffffffffffffffffffffffffffffffffffffff168373ffffffffffffffffffffffffffffffffffffffff1603611b655781816002015f8282540392505081905550611bb1565b81815f015f8573ffffffffffffffffffffffffffffffffffffffff1673ffffffffffffffffffffffffffffffffffffffff1681526020019081526020015f205f82825401925050819055505b8273ffffffffffffffffffffffffffffffffffffffff168473ffffffffffffffffffffffffffffffffffffffff167fddf252ad1be2c89b69c2b068fc378daa952ba7f163c4a11628f55a4df523b3ef84604051611c0e919061202a565b60405180910390a350505050565b5f819050919050565b5f8173ffffffffffffffffffffffffffffffffffffffff163b03611c8057806040517f4c9c8ce3000000000000000000000000000000000000000000000000000000008152600401611c7791906122b8565b60405180910390fd5b80611cac7f360894a13ba1a3210667c828492db98dca3e2076cc3735a920a3ca505d382bbc5f1b611c1c565b5f015f6101000a81548173ffffffffffffffffffffffffffffffffffffffff021916908373ffffffffffffffffffffffffffffffffffffffff16021790555050565b60605f611cfb8484611e39565b9050808015611d3157505f611d0e611e4d565b1180611d3057505f8473ffffffffffffffffffffffffffffffffffffffff163b115b5b15611d4657611d3e611e54565b915050611dd9565b8015611d8957836040517f9996b315000000000000000000000000000000000000000000000000000000008152600401611d8091906122b8565b60405180910390fd5b5f611d92611e4d565b1115611da557611da0611e71565b611dd7565b6040517fd6bda27500000000000000000000000000000000000000000000000000000000815260040160405180910390fd5b505b92915050565b5f341115611e19576040517fb398979f00000000000000000000000000000000000000000000000000000000815260040160405180910390fd5b565b5f611e246114ed565b5f0160089054906101000a900460ff16905090565b5f5f5f835160208501865af4905092915050565b5f3d905090565b606060405190503d81523d5f602083013e3d602001810160405290565b6040513d5f823e3d81fd5b5f81519050919050565b5f82825260208201905092915050565b8281835e5f83830152505050565b5f601f19601f8301169050919050565b5f611ebe82611e7c565b611ec88185611e86565b9350611ed8818560208601611e96565b611ee181611ea4565b840191505092915050565b5f6020820190508181035f830152611f048184611eb4565b905092915050565b5f604051905090565b5f5ffd5b5f5ffd5b5f73ffffffffffffffffffffffffffffffffffffffff82169050919050565b5f611f4682611f1d565b9050919050565b611f5681611f3c565b8114611f60575f5ffd5b50565b5f81359050611f7181611f4d565b92915050565b5f819050919050565b611f8981611f77565b8114611f93575f5ffd5b50565b5f81359050611fa481611f80565b92915050565b5f5f60408385031215611fc057611fbf611f15565b5b5f611fcd85828601611f63565b9250506020611fde85828601611f96565b9150509250929050565b5f8115159050919050565b611ffc81611fe8565b82525050565b5f6020820190506120155f830184611ff3565b92915050565b61202481611f77565b82525050565b5f60208201905061203d5f83018461201b565b92915050565b5f5f5f6060848603121561205a57612059611f15565b5b5f61206786828701611f63565b935050602061207886828701611f63565b925050604061208986828701611f96565b9150509250925092565b5f60ff82169050919050565b6120a881612093565b82525050565b5f6020820190506120c15f83018461209f565b92915050565b5f5ffd5b5f5ffd5b7f4e487b71000000000000000000000000000000000000000000000000000000005f52604160045260245ffd5b61210582611ea4565b810181811067ffffffffffffffff82111715612124576121236120cf565b5b80604052505050565b5f612136611f0c565b905061214282826120fc565b919050565b5f67ffffffffffffffff821115612161576121606120cf565b5b61216a82611ea4565b9050602081019050919050565b828183375f83830152505050565b5f61219761219284612147565b61212d565b9050828152602081018484840111156121b3576121b26120cb565b5b6121be848285612177565b509392505050565b5f82601f8301126121da576121d96120c7565b5b81356121ea848260208601612185565b91505092915050565b5f5f6040838503121561220957612208611f15565b5b5f61221685828601611f63565b925050602083013567ffffffffffffffff81111561223757612236611f19565b5b612243858286016121c6565b9150509250929050565b5f819050919050565b61225f8161224d565b82525050565b5f6020820190506122785f830184612256565b92915050565b5f6020828403121561229357612292611f15565b5b5f6122a084828501611f63565b91505092915050565b6122b281611f3c565b82525050565b5f6020820190506122cb5f8301846122a9565b92915050565b5f5f604083850312156122e7576122e6611f15565b5b5f6122f485828601611f63565b925050602061230585828601611f63565b9150509250929050565b7f4e487b71000000000000000000000000000000000000000000000000000000005f52602260045260245ffd5b5f600282049050600182168061235357607f821691505b6020821081036123665761236561230f565b5b50919050565b7f4e6f7420617574686f72697a65640000000000000000000000000000000000005f82015250565b5f6123a0600e83611e86565b91506123ab8261236c565b602082019050919050565b5f6020820190508181035f8301526123cd81612394565b9050919050565b7f496e76616c6964206164647265737300000000000000000000000000000000005f82015250565b5f612408600f83611e86565b9150612413826123d4565b602082019050919050565b5f6020820190508181035f830152612435816123fc565b9050919050565b5f819050919050565b5f67ffffffffffffffff82169050919050565b5f819050919050565b5f61247b6124766124718461243c565b612458565b612445565b9050919050565b61248b81612461565b82525050565b5f6020820190506124a45f830184612482565b92915050565b5f6060820190506124bd5f8301866122a9565b6124ca602083018561201b565b6124d7604083018461201b565b949350505050565b6124e88161224d565b81146124f2575f5ffd5b50565b5f81519050612503816124df565b92915050565b5f6020828403121561251e5761251d611f15565b5b5f61252b848285016124f5565b91505092915050565b5f819050815f5260205f209050919050565b5f6020601f8301049050919050565b5f82821b905092915050565b5f600883026125907fffffffffffffffffffffffffffffffffffffffffffffffffffffffffffffffff82612555565b61259a8683612555565b95508019841693508086168417925050509392505050565b5f6125cc6125c76125c284611f77565b612458565b611f77565b9050919050565b5f819050919050565b6125e5836125b2565b6125f96125f1826125d3565b848454612561565b825550505050565b5f5f905090565b612610612601565b61261b8184846125dc565b505050565b5f5b82811015612641576126365f828401612608565b600181019050612622565b505050565b601f82111561269457828211156126935761266081612534565b61266983612546565b61267285612546565b602086101561267f575f90505b80830161268e82840382612620565b505050505b5b505050565b5f82821c905092915050565b5f6126b45f1984600802612699565b1980831691505092915050565b5f6126cc83836126a5565b9150826002028217905092915050565b6126e582611e7c565b67ffffffffffffffff8111156126fe576126fd6120cf565b5b612708825461233c565b612713828285612646565b5f60209050601f831160018114612744575f8415612732578287015190505b61273c85826126c1565b8655506127a3565b601f19841661275286612534565b5f5b8281101561277957848901518255600182019150602085019450602081019050612754565b868310156127965784890151612792601f8916826126a5565b8355505b6001600288020188555050505b505050505050565b7f4e487b71000000000000000000000000000000000000000000000000000000005f52601160045260245ffd5b5f6127e282611f77565b91506127ed83611f77565b9250828201905080821115612805576128046127ab565b5b9291505056fea264697066735822122023ee8ab115d5fe93778cf13885d1ddbcfd09a93bd61ec90b736b124d1dfca6d264736f6c63430008210033",
    "linkReferences": {}
  },
  "methodIdentifiers": {
    "UPGRADE_INTERFACE_VERSION()": "ad3cb1cc",
    "allowance(address,address)": "dd62ed3e",
    "approve(address,uint256)": "095ea7b3",
    "balanceOf(address)": "70a08231",
    "burnFrom(address,uint256)": "79cc6790",
    "decimals()": "313ce567",
    "initialize()": "8129fc1c",
    "minerContract()": "ee09c748",
    "mint(address,uint256)": "40c10f19",
    "name()": "06fdde03",
    "owner()": "8da5cb5b",
    "pause()": "8456cb59",
    "paused()": "5c975abb",
    "proxiableUUID()": "52d1902d",
    "renounceOwnership()": "715018a6",
    "setMinerContract(address)": "5c5aba68",
    "symbol()": "95d89b41",
    "totalSupply()": "18160ddd",
    "transfer(address,uint256)": "a9059cbb",
    "transferFrom(address,address,uint256)": "23b872dd",
    "transferOwnership(address)": "f2fde38b",
    "unpause()": "3f4ba83a",
    "upgradeToAndCall(address,bytes)": "4f1ef286"
  },
  "id": 19
}