{
  "abi": [
    {
      "type": "constructor",
      "inputs": [],
      "stateMutability": "nonpayable"
    },
    {
      "type": "function",
      "name": "MINER_COST",
      "inputs": [],
      "outputs": [
        {
          "name": "",
          "type": "uint256",
          "internalType": "uint256"
        }
      ],
      "stateMutability": "view"
    },
    {
      "type": "function",
      "name": "UPGRADE_INTERFACE_VERSION",
      "inputs": [],
      "outputs": [
        {
          "name": "",
          "type": "string",
          "internalType": "string"
        }
      ],
      "stateMutability": "view"
    },
    {
      "type": "function",
      "name": "buyMiner",
      "inputs": [
        {
          "name": "quantity",
          "type": "uint256",
          "internalType": "uint256"
        }
      ],
      "outputs": [],
      "stateMutability": "nonpayable"
    },
    {
      "type": "function",
      "name": "buyTokens",
      "inputs": [],
      "outputs": [],
      "stateMutability": "payable"
    },
    {
      "type": "function",
      "name": "claim",
      "inputs": [],
      "outputs": [],
      "stateMutability": "nonpayable"
    },
    {
      "type": "function",
      "name": "feeIndex",
      "inputs": [],
      "outputs": [
        {
          "name": "",
          "type": "uint256",
          "internalType": "uint256"
        }
      ],
      "stateMutability": "view"
    },
    {
      "type": "function",
      "name": "initialize",
      "inputs": [
        {
          "name": "_token",
          "type": "address",
          "internalType": "address"
        }
      ],
      "outputs": [],
      "stateMutability": "nonpayable"
    },
    {
      "type": "function",
      "name": "lastUpdate",
      "inputs": [],
      "outputs": [
        {
          "name": "",
          "type": "uint256",
          "internalType": "uint256"
        }
      ],
      "stateMutability": "view"
    },
    {
      "type": "function",
      "name": "owner",
      "inputs": [],
      "outputs": [
        {
          "name": "",
          "type": "address",
          "internalType": "address"
        }
      ],
      "stateMutability": "view"
    },
    {
      "type": "function",
      "name": "pause",
      "inputs": [],
      "outputs": [],
      "stateMutability": "nonpayable"
    },
    {
      "type": "function",
      "name": "paused",
      "inputs": [],
      "outputs": [
        {
          "name": "",
          "type": "bool",
          "internalType": "bool"
        }
      ],
      "stateMutability": "view"
    },
    {
      "type": "function",
      "name": "pendingReward",
      "inputs": [
        {
          "name": "userAddr",
          "type": "address",
          "internalType": "address"
        }
      ],
      "outputs": [
        {
          "name": "",
          "type": "uint256",
          "internalType": "uint256"
        }
      ],
      "stateMutability": "view"
    },
    {
      "type": "function",
      "name": "proxiableUUID",
      "inputs": [],
      "outputs": [
        {
          "name": "",
          "type": "bytes32",
          "internalType": "bytes32"
        }
      ],
      "stateMutability": "view"
    },
    {
      "type": "function",
      "name": "rate",
      "inputs": [],
      "outputs": [
        {
          "name": "",
          "type": "uint256",
          "internalType": "uint256"
        }
      ],
      "stateMutability": "view"
    },
    {
      "type": "function",
      "name": "renounceOwnership",
      "inputs": [],
      "outputs": [],
      "stateMutability": "nonpayable"
    },
    {
      "type": "function",
      "name": "rewardIndex",
      "inputs": [],
      "outputs": [
        {
          "name": "",
          "type": "uint256",
          "internalType": "uint256"
        }
      ],
      "stateMutability": "view"
    },
    {
      "type": "function",
      "name": "setTreasury",
      "inputs": [
        {
          "name": "_treasury",
          "type": "address",
          "internalType": "address"
        }
      ],
      "outputs": [],
      "stateMutability": "nonpayable"
    },
    {
      "type": "function",
      "name": "token",
      "inputs": [],
      "outputs": [
        {
          "name": "",
          "type": "address",
          "internalType": "contract GBNToken"
        }
      ],
      "stateMutability": "view"
    },
    {
      "type": "function",
      "name": "transferOwnership",
      "inputs": [
        {
          "name": "newOwner",
          "type": "address",
          "internalType": "address"
        }
      ],
      "outputs": [],
      "stateMutability": "nonpayable"
    },
    {
      "type": "function",
      "name": "treasury",
      "inputs": [],
      "outputs": [
        {
          "name": "",
          "type": "address",
          "internalType": "address"
        }
      ],
      "stateMutability": "view"
    },
    {
      "type": "function",
      "name": "unpause",
      "inputs": [],
      "outputs": [],
      "stateMutability": "nonpayable"
    },
    {
      "type": "function",
      "name": "upgradeToAndCall",
      "inputs": [
        {
          "name": "newImplementation",
          "type": "address",
          "internalType": "address"
        },
        {
          "name": "data",
          "type": "bytes",
          "internalType": "bytes"
        }
      ],
      "outputs": [],
      "stateMutability": "payable"
    },
    {
      "type": "function",
      "name": "users",
      "inputs": [
        {
          "name": "",
          "type": "address",
          "internalType": "address"
        }
      ],
      "outputs": [
        {
          "name": "miners",
          "type": "uint256",
          "internalType": "uint256"
        },
        {
          "name": "rewardDebt",
          "type": "uint256",
          "internalType": "uint256"
        },
        {
          "name": "feeDebt",
          "type": "uint256",
          "internalType": "uint256"
        }
      ],
      "stateMutability": "view"
    },
    {
      "type": "event",
      "name": "Initialized",
      "inputs": [
        {
          "name": "version",
          "type": "uint64",
          "indexed": false,
          "internalType": "uint64"
        }
      ],
      "anonymous": false
    },
    {
      "type": "event",
      "name": "OwnershipTransferred",
      "inputs": [
        {
          "name": "previousOwner",
          "type": "address",
          "indexed": true,
          "internalType": "address"
        },
        {
          "name": "newOwner",
          "type": "address",
          "indexed": true,
          "internalType": "address"
        }
      ],
      "anonymous": false
    },
    {
      "type": "event",
      "name": "Paused",
      "inputs": [
        {
          "name": "account",
          "type": "address",
          "indexed": false,
          "internalType": "address"
        }
      ],
      "anonymous": false
    },
    {
      "type": "event",
      "name": "Unpaused",
      "inputs": [
        {
          "name": "account",
          "type": "address",
          "indexed": false,
          "internalType": "address"
        }
      ],
      "anonymous": false
    },
    {
      "type": "event",
      "name": "Upgraded",
      "inputs": [
        {
          "name": "implementation",
          "type": "address",
          "indexed": true,
          "internalType": "address"
        }
      ],
      "anonymous": false
    },
    {
      "type": "error",
      "name": "AddressEmptyCode",
      "inputs": [
        {
          "name": "target",
          "type": "address",
          "internalType": "address"
        }
      ]
    },
    {
      "type": "error",
      "name": "ERC1967InvalidImplementation",
      "inputs": [
        {
          "name": "implementation",
          "type": "address",
          "internalType": "address"
        }
      ]
    },
    {
      "type": "error",
      "name": "ERC1967NonPayable",
      "inputs": []
    },
    {
      "type": "error",
      "name": "EnforcedPause",
      "inputs": []
    },
    {
      "type": "error",
      "name": "ExpectedPause",
      "inputs": []
    },
    {
      "type": "error",
      "name": "FailedCall",
      "inputs": []
    },
    {
      "type": "error",
      "name": "InvalidInitialization",
      "inputs": []
    },
    {
      "type": "error",
      "name": "NotInitializing",
      "inputs": []
    },
    {
      "type": "error",
      "name": "OwnableInvalidOwner",
      "inputs": [
        {
          "name": "owner",
          "type": "address",
          "internalType": "address"
        }
      ]
    },
    {
      "type": "error",
      "name": "OwnableUnauthorizedAccount",
      "inputs": [
        {
          "name": "account",
          "type": "address",
          "internalType": "address"
        }
      ]
    },
    {
      "type": "error",
      "name": "UUPSUnauthorizedCallContext",
      "inputs": []
    },
    {
      "type": "error",
      "name": "UUPSUnsupportedProxiableUUID",
      "inputs": [
        {
          "name": "slot",
          "type": "bytes32",
          "internalType": "bytes32"
        }
      ]
    }
  ],
  "bytecode": {
    "object": "0x60a06040523073ffffffffffffffffffffffffffffffffffffffff1660809073ffffffffffffffffffffffffffffffffffffffff16815250348015610042575f5ffd5b5061005161005660201b60201c565b6101d1565b5f61006561015460201b60201c565b9050805f0160089054906101000a900460ff16156100af576040517ff92ee8a900000000000000000000000000000000000000000000000000000000815260040160405180910390fd5b67ffffffffffffffff8016815f015f9054906101000a900467ffffffffffffffff1667ffffffffffffffff16146101515767ffffffffffffffff815f015f6101000a81548167ffffffffffffffff021916908367ffffffffffffffff1602179055507fc7f505b2f371ae2175ee4913f4499e1f2633a7b5936321eed1cdaeb6115181d267ffffffffffffffff60405161014891906101b8565b60405180910390a15b50565b5f5f61016461016d60201b60201c565b90508091505090565b5f7ff0c57e16840df040f15088dc2f81fe391c3923bec73e23a9662efc9c229c6a005f1b905090565b5f67ffffffffffffffff82169050919050565b6101b281610196565b82525050565b5f6020820190506101cb5f8301846101a9565b92915050565b60805161261e6101f75f395f81816114e40152818161153901526116f3015261261e5ff3fe60806040526004361061013f575f3560e01c80638456cb59116100b5578063d0febe4c1161006e578063d0febe4c146103bf578063e9ee2fa9146103c9578063f0f44260146103f3578063f2fde38b1461041b578063f40f0f5214610443578063fc0c546a1461047f5761013f565b80638456cb59146102c55780638da5cb5b146102db578063a87430ba14610305578063ad3cb1cc14610343578063c04637111461036d578063c4d66de8146103975761013f565b80634f1ef286116101075780634f1ef286146101ed57806352d1902d146102095780635c975abb1461023357806361d027b31461025d57806362de3bd114610287578063715018a6146102af5761013f565b80631541826814610143578063298645471461016d5780632c4e722e146101975780633f4ba83a146101c15780634e71d92d146101d7575b5f5ffd5b34801561014e575f5ffd5b506101576104a9565b6040516101649190611da8565b60405180910390f35b348015610178575f5ffd5b506101816104b6565b60405161018e9190611da8565b60405180910390f35b3480156101a2575f5ffd5b506101ab6104bc565b6040516101b89190611da8565b60405180910390f35b3480156101cc575f5ffd5b506101d56104c2565b005b3480156101e2575f5ffd5b506101eb6104d4565b005b61020760048036038101906102029190611f68565b610570565b005b348015610214575f5ffd5b5061021d61058f565b60405161022a9190611fda565b60405180910390f35b34801561023e575f5ffd5b506102476105c0565b604051610254919061200d565b60405180910390f35b348015610268575f5ffd5b506102716105e2565b60405161027e9190612035565b60405180910390f35b348015610292575f5ffd5b506102ad60048036038101906102a89190612078565b610607565b005b3480156102ba575f5ffd5b506102c361086c565b005b3480156102d0575f5ffd5b506102d961087f565b005b3480156102e6575f5ffd5b506102ef610891565b6040516102fc9190612035565b60405180910390f35b348015610310575f5ffd5b5061032b600480360381019061032691906120a3565b6108c6565b60405161033a939291906120ce565b60405180910390f35b34801561034e575f5ffd5b506103576108ec565b6040516103649190612163565b60405180910390f35b348015610378575f5ffd5b50610381610925565b60405161038e9190611da8565b60405180910390f35b3480156103a2575f5ffd5b506103bd60048036038101906103b891906120a3565b61092b565b005b6103c7610b43565b005b3480156103d4575f5ffd5b506103dd610c29565b6040516103ea9190611da8565b60405180910390f35b3480156103fe575f5ffd5b50610419600480360381019061041491906120a3565b610c2f565b005b348015610426575f5ffd5b50610441600480360381019061043c91906120a3565b610c7a565b005b34801561044e575f5ffd5b50610469600480360381019061046491906120a3565b610cfe565b6040516104769190611da8565b60405180910390f35b34801561048a575f5ffd5b50610493610e9a565b6040516104a091906121de565b60405180910390f35b68056bc75e2d6310000081565b60035481565b60015481565b6104ca610ebe565b6104d2610f45565b565b6104dc610fb3565b5f60065f3373ffffffffffffffffffffffffffffffffffffffff1673ffffffffffffffffffffffffffffffffffffffff1681526020019081526020015f205f01541161055d576040517f08c379a000000000000000000000000000000000000000000000000000000000815260040161055490612241565b60405180910390fd5b610565610ff4565b61056e33611197565b565b6105786114e2565b610581826115c8565b61058b82826115d3565b5050565b5f6105986116f1565b7f360894a13ba1a3210667c828492db98dca3e2076cc3735a920a3ca505d382bbc5f1b905090565b5f5f6105ca611778565b9050805f015f9054906101000a900460ff1691505090565b60055f9054906101000a900473ffffffffffffffffffffffffffffffffffffffff1681565b61060f610fb3565b5f8111610651576040517f08c379a0000000000000000000000000000000000000000000000000000000008152600401610648906122a9565b60405180910390fd5b5f8168056bc75e2d6310000061066791906122f4565b9050805f5f9054906101000a900473ffffffffffffffffffffffffffffffffffffffff1673ffffffffffffffffffffffffffffffffffffffff166370a08231336040518263ffffffff1660e01b81526004016106c39190612035565b602060405180830381865afa1580156106de573d5f5f3e3d5ffd5b505050506040513d601f19601f820116820180604052508101906107029190612349565b1015610743576040517f08c379a000000000000000000000000000000000000000000000000000000000815260040161073a906123be565b60405180910390fd5b61074b610ff4565b5f60065f3373ffffffffffffffffffffffffffffffffffffffff1673ffffffffffffffffffffffffffffffffffffffff1681526020019081526020015f20905061079433611197565b5f5f9054906101000a900473ffffffffffffffffffffffffffffffffffffffff1673ffffffffffffffffffffffffffffffffffffffff166379cc679033846040518363ffffffff1660e01b81526004016107ef9291906123dc565b5f604051808303815f87803b158015610806575f5ffd5b505af1158015610818573d5f5f3e3d5ffd5b5050505082815f015f82825461082e9190612403565b92505081905550600254815f015461084691906122f4565b8160010181905550600354815f015461085f91906122f4565b8160020181905550505050565b610874610ebe565b61087d5f61179f565b565b610887610ebe565b61088f611870565b565b5f5f61089b6118df565b9050805f015f9054906101000a900473ffffffffffffffffffffffffffffffffffffffff1691505090565b6006602052805f5260405f205f91509050805f0154908060010154908060020154905083565b6040518060400160405280600581526020017f352e302e3000000000000000000000000000000000000000000000000000000081525081565b60045481565b5f610934611906565b90505f815f0160089054906101000a900460ff161590505f825f015f9054906101000a900467ffffffffffffffff1690505f5f8267ffffffffffffffff1614801561097c5750825b90505f60018367ffffffffffffffff161480156109af57505f3073ffffffffffffffffffffffffffffffffffffffff163b145b9050811580156109bd575080155b156109f4576040517ff92ee8a900000000000000000000000000000000000000000000000000000000815260040160405180910390fd5b6001855f015f6101000a81548167ffffffffffffffff021916908367ffffffffffffffff1602179055508315610a41576001855f0160086101000a81548160ff0219169083151502179055505b610a4a33611919565b610a5261192d565b855f5f6101000a81548173ffffffffffffffffffffffffffffffffffffffff021916908373ffffffffffffffffffffffffffffffffffffffff1602179055506103e8600181905550426004819055503360055f6101000a81548173ffffffffffffffffffffffffffffffffffffffff021916908373ffffffffffffffffffffffffffffffffffffffff1602179055508315610b3b575f855f0160086101000a81548160ff0219169083151502179055507fc7f505b2f371ae2175ee4913f4499e1f2633a7b5936321eed1cdaeb6115181d26001604051610b329190612482565b60405180910390a15b505050505050565b610b4b610fb3565b5f3411610b8d576040517f08c379a0000000000000000000000000000000000000000000000000000000008152600401610b84906124e5565b60405180910390fd5b5f60015434610b9c91906122f4565b90505f5f9054906101000a900473ffffffffffffffffffffffffffffffffffffffff1673ffffffffffffffffffffffffffffffffffffffff166340c10f1933836040518363ffffffff1660e01b8152600401610bf99291906123dc565b5f604051808303815f87803b158015610c10575f5ffd5b505af1158015610c22573d5f5f3e3d5ffd5b5050505050565b60025481565b610c37610ebe565b8060055f6101000a81548173ffffffffffffffffffffffffffffffffffffffff021916908373ffffffffffffffffffffffffffffffffffffffff16021790555050565b610c82610ebe565b5f73ffffffffffffffffffffffffffffffffffffffff168173ffffffffffffffffffffffffffffffffffffffff1603610cf2575f6040517f1e4fbdf7000000000000000000000000000000000000000000000000000000008152600401610ce99190612035565b60405180910390fd5b610cfb8161179f565b50565b5f5f60065f8473ffffffffffffffffffffffffffffffffffffffff1673ffffffffffffffffffffffffffffffffffffffff1681526020019081526020015f206040518060600160405290815f82015481526020016001820154815260200160028201548152505090505f683635c9adc5dea000005f5f9054906101000a900473ffffffffffffffffffffffffffffffffffffffff1673ffffffffffffffffffffffffffffffffffffffff166318160ddd6040518163ffffffff1660e01b8152600401602060405180830381865afa158015610ddb573d5f5f3e3d5ffd5b505050506040513d601f19601f82011682018060405250810190610dff9190612349565b610e099190612530565b90505f816103e8610e1a9190612403565b686c6b935b8bbd400000610e2e9190612530565b90505f60045442610e3f9190612560565b90505f620151808284610e5291906122f4565b610e5c9190612530565b600254610e699190612403565b90505f81865f0151610e7b91906122f4565b9050856020015181610e8d9190612560565b9650505050505050919050565b5f5f9054906101000a900473ffffffffffffffffffffffffffffffffffffffff1681565b610ec6611937565b73ffffffffffffffffffffffffffffffffffffffff16610ee4610891565b73ffffffffffffffffffffffffffffffffffffffff1614610f4357610f07611937565b6040517f118cdaa7000000000000000000000000000000000000000000000000000000008152600401610f3a9190612035565b60405180910390fd5b565b610f4d61193e565b5f610f56611778565b90505f815f015f6101000a81548160ff0219169083151502179055507f5db9ee0a495bf2e6ff9c91a7834c1ba4fdd244a5e8aa4e537bd38aeae4b073aa610f9b611937565b604051610fa89190612035565b60405180910390a150565b610fbb6105c0565b15610ff2576040517fd93c066500000000000000000000000000000000000000000000000000000000815260040160405180910390fd5b565b5f600454426110039190612560565b90505f81036110125750611195565b5f683635c9adc5dea000005f5f9054906101000a900473ffffffffffffffffffffffffffffffffffffffff1673ffffffffffffffffffffffffffffffffffffffff166318160ddd6040518163ffffffff1660e01b8152600401602060405180830381865afa158015611086573d5f5f3e3d5ffd5b505050506040513d601f19601f820116820180604052508101906110aa9190612349565b6110b49190612530565b90505f671bc16d674ec8000090505f670de0b6b3a764000090505f836103e86110dd9190612403565b6103e8846110eb91906122f4565b6110f59190612530565b90505f600a670de0b6b3a76400008661110e91906122f4565b6111189190612530565b836111239190612403565b905062015180868361113591906122f4565b61113f9190612530565b60025f82825461114f9190612403565b9250508190555062015180868261116691906122f4565b6111709190612530565b60035f8282546111809190612403565b92505081905550426004819055505050505050505b565b5f60065f8373ffffffffffffffffffffffffffffffffffffffff1673ffffffffffffffffffffffffffffffffffffffff1681526020019081526020015f2090505f815f0154036111e757506114df565b5f600254825f01546111f991906122f4565b90505f600354835f015461120d91906122f4565b90505f8360010154836112209190612560565b90505f8460020154836112339190612560565b90508385600101819055508285600201819055505f8211156112d8575f5f9054906101000a900473ffffffffffffffffffffffffffffffffffffffff1673ffffffffffffffffffffffffffffffffffffffff166340c10f1987846040518363ffffffff1660e01b81526004016112aa9291906123dc565b5f604051808303815f87803b1580156112c1575f5ffd5b505af11580156112d3573d5f5f3e3d5ffd5b505050505b5f8111156114d9575f60646032836112f091906122f4565b6112fa9190612530565b90505f81836113099190612560565b90505f8111156113bd575f5f9054906101000a900473ffffffffffffffffffffffffffffffffffffffff1673ffffffffffffffffffffffffffffffffffffffff166340c10f1960055f9054906101000a900473ffffffffffffffffffffffffffffffffffffffff16836040518363ffffffff1660e01b815260040161138f9291906123dc565b5f604051808303815f87803b1580156113a6575f5ffd5b505af11580156113b8573d5f5f3e3d5ffd5b505050505b5f8211156114d6575f5f9054906101000a900473ffffffffffffffffffffffffffffffffffffffff1673ffffffffffffffffffffffffffffffffffffffff166340c10f1930846040518363ffffffff1660e01b81526004016114209291906123dc565b5f604051808303815f87803b158015611437575f5ffd5b505af1158015611449573d5f5f3e3d5ffd5b505050505f5f9054906101000a900473ffffffffffffffffffffffffffffffffffffffff1673ffffffffffffffffffffffffffffffffffffffff166379cc679030846040518363ffffffff1660e01b81526004016114a89291906123dc565b5f604051808303815f87803b1580156114bf575f5ffd5b505af11580156114d1573d5f5f3e3d5ffd5b505050505b50505b50505050505b50565b7f000000000000000000000000000000000000000000000000000000000000000073ffffffffffffffffffffffffffffffffffffffff163073ffffffffffffffffffffffffffffffffffffffff16148061158f57507f000000000000000000000000000000000000000000000000000000000000000073ffffffffffffffffffffffffffffffffffffffff1661157661197e565b73ffffffffffffffffffffffffffffffffffffffff1614155b156115c6576040517fe07c8dba00000000000000000000000000000000000000000000000000000000815260040160405180910390fd5b565b6115d0610ebe565b50565b8173ffffffffffffffffffffffffffffffffffffffff166352d1902d6040518163ffffffff1660e01b8152600401602060405180830381865afa92505050801561163b57506040513d601f19601f8201168201806040525081019061163891906125bd565b60015b61167c57816040517f4c9c8ce30000000000000000000000000000000000000000000000000000000081526004016116739190612035565b60405180910390fd5b7f360894a13ba1a3210667c828492db98dca3e2076cc3735a920a3ca505d382bbc5f1b81146116e257806040517faa1d49a40000000000000000000000000000000000000000000000000000000081526004016116d99190611fda565b60405180910390fd5b6116ec83836119d1565b505050565b7f000000000000000000000000000000000000000000000000000000000000000073ffffffffffffffffffffffffffffffffffffffff163073ffffffffffffffffffffffffffffffffffffffff1614611776576040517fe07c8dba00000000000000000000000000000000000000000000000000000000815260040160405180910390fd5b565b5f7fcd5ed15c6e187e77e9aee88184c21f4f2182ab5827cb3b7e07fbedcd63f03300905090565b5f6117a86118df565b90505f815f015f9054906101000a900473ffffffffffffffffffffffffffffffffffffffff16905082825f015f6101000a81548173ffffffffffffffffffffffffffffffffffffffff021916908373ffffffffffffffffffffffffffffffffffffffff1602179055508273ffffffffffffffffffffffffffffffffffffffff168173ffffffffffffffffffffffffffffffffffffffff167f8be0079c531659141344cd1fd0a4f28419497f9722a3daafe3b4186f6b6457e060405160405180910390a3505050565b611878610fb3565b5f611881611778565b90506001815f015f6101000a81548160ff0219169083151502179055507f62e78cea01bee320cd4e420270b5ea74000d11b0c9f74754ebdbfc544b05a2586118c7611937565b6040516118d49190612035565b60405180910390a150565b5f7f9016d09d72d40fdae2fd8ceac6b6234c7706214fd39c1cd1e609a0528c199300905090565b5f5f611910611a43565b90508091505090565b611921611a6c565b61192a81611aac565b50565b611935611a6c565b565b5f33905090565b6119466105c0565b61197c576040517f8dfc202b00000000000000000000000000000000000000000000000000000000815260040160405180910390fd5b565b5f6119aa7f360894a13ba1a3210667c828492db98dca3e2076cc3735a920a3ca505d382bbc5f1b611b30565b5f015f9054906101000a900473ffffffffffffffffffffffffffffffffffffffff16905090565b6119da82611b39565b8173ffffffffffffffffffffffffffffffffffffffff167fbc7cd75a20ee27fd9adebab32041f755214dbc6bffa90cc0225b39da2e5c2d3b60405160405180910390a25f81511115611a3657611a308282611c02565b50611a3f565b611a3e611cf3565b5b5050565b5f7ff0c57e16840df040f15088dc2f81fe391c3923bec73e23a9662efc9c229c6a005f1b905090565b611a74611d2f565b611aaa576040517fd7e6bcf800000000000000000000000000000000000000000000000000000000815260040160405180910390fd5b565b611ab4611a6c565b5f73ffffffffffffffffffffffffffffffffffffffff168173ffffffffffffffffffffffffffffffffffffffff1603611b24575f6040517f1e4fbdf7000000000000000000000000000000000000000000000000000000008152600401611b1b9190612035565b60405180910390fd5b611b2d8161179f565b50565b5f819050919050565b5f8173ffffffffffffffffffffffffffffffffffffffff163b03611b9457806040517f4c9c8ce3000000000000000000000000000000000000000000000000000000008152600401611b8b9190612035565b60405180910390fd5b80611bc07f360894a13ba1a3210667c828492db98dca3e2076cc3735a920a3ca505d382bbc5f1b611b30565b5f015f6101000a81548173ffffffffffffffffffffffffffffffffffffffff021916908373ffffffffffffffffffffffffffffffffffffffff16021790555050565b60605f611c0f8484611d4d565b9050808015611c4557505f611c22611d61565b1180611c4457505f8473ffffffffffffffffffffffffffffffffffffffff163b115b5b15611c5a57611c52611d68565b915050611ced565b8015611c9d57836040517f9996b315000000000000000000000000000000000000000000000000000000008152600401611c949190612035565b60405180910390fd5b5f611ca6611d61565b1115611cb957611cb4611d85565b611ceb565b6040517fd6bda27500000000000000000000000000000000000000000000000000000000815260040160405180910390fd5b505b92915050565b5f341115611d2d576040517fb398979f00000000000000000000000000000000000000000000000000000000815260040160405180910390fd5b565b5f611d38611906565b5f0160089054906101000a900460ff16905090565b5f5f5f835160208501865af4905092915050565b5f3d905090565b606060405190503d81523d5f602083013e3d602001810160405290565b6040513d5f823e3d81fd5b5f819050919050565b611da281611d90565b82525050565b5f602082019050611dbb5f830184611d99565b92915050565b5f604051905090565b5f5ffd5b5f5ffd5b5f73ffffffffffffffffffffffffffffffffffffffff82169050919050565b5f611dfb82611dd2565b9050919050565b611e0b81611df1565b8114611e15575f5ffd5b50565b5f81359050611e2681611e02565b92915050565b5f5ffd5b5f5ffd5b5f601f19601f8301169050919050565b7f4e487b71000000000000000000000000000000000000000000000000000000005f52604160045260245ffd5b611e7a82611e34565b810181811067ffffffffffffffff82111715611e9957611e98611e44565b5b80604052505050565b5f611eab611dc1565b9050611eb78282611e71565b919050565b5f67ffffffffffffffff821115611ed657611ed5611e44565b5b611edf82611e34565b9050602081019050919050565b828183375f83830152505050565b5f611f0c611f0784611ebc565b611ea2565b905082815260208101848484011115611f2857611f27611e30565b5b611f33848285611eec565b509392505050565b5f82601f830112611f4f57611f4e611e2c565b5b8135611f5f848260208601611efa565b91505092915050565b5f5f60408385031215611f7e57611f7d611dca565b5b5f611f8b85828601611e18565b925050602083013567ffffffffffffffff811115611fac57611fab611dce565b5b611fb885828601611f3b565b9150509250929050565b5f819050919050565b611fd481611fc2565b82525050565b5f602082019050611fed5f830184611fcb565b92915050565b5f8115159050919050565b61200781611ff3565b82525050565b5f6020820190506120205f830184611ffe565b92915050565b61202f81611df1565b82525050565b5f6020820190506120485f830184612026565b92915050565b61205781611d90565b8114612061575f5ffd5b50565b5f813590506120728161204e565b92915050565b5f6020828403121561208d5761208c611dca565b5b5f61209a84828501612064565b91505092915050565b5f602082840312156120b8576120b7611dca565b5b5f6120c584828501611e18565b91505092915050565b5f6060820190506120e15f830186611d99565b6120ee6020830185611d99565b6120fb6040830184611d99565b949350505050565b5f81519050919050565b5f82825260208201905092915050565b8281835e5f83830152505050565b5f61213582612103565b61213f818561210d565b935061214f81856020860161211d565b61215881611e34565b840191505092915050565b5f6020820190508181035f83015261217b818461212b565b905092915050565b5f819050919050565b5f6121a66121a161219c84611dd2565b612183565b611dd2565b9050919050565b5f6121b78261218c565b9050919050565b5f6121c8826121ad565b9050919050565b6121d8816121be565b82525050565b5f6020820190506121f15f8301846121cf565b92915050565b7f4275792061206d696e65722066697273740000000000000000000000000000005f82015250565b5f61222b60118361210d565b9150612236826121f7565b602082019050919050565b5f6020820190508181035f8301526122588161221f565b9050919050565b7f5175616e74697479206d7573742062652067726561746572207468616e2030005f82015250565b5f612293601f8361210d565b915061229e8261225f565b602082019050919050565b5f6020820190508181035f8301526122c081612287565b9050919050565b7f4e487b71000000000000000000000000000000000000000000000000000000005f52601160045260245ffd5b5f6122fe82611d90565b915061230983611d90565b925082820261231781611d90565b9150828204841483151761232e5761232d6122c7565b5b5092915050565b5f815190506123438161204e565b92915050565b5f6020828403121561235e5761235d611dca565b5b5f61236b84828501612335565b91505092915050565b7f496e73756666696369656e742047424e2062616c616e636500000000000000005f82015250565b5f6123a860188361210d565b91506123b382612374565b602082019050919050565b5f6020820190508181035f8301526123d58161239c565b9050919050565b5f6040820190506123ef5f830185612026565b6123fc6020830184611d99565b9392505050565b5f61240d82611d90565b915061241883611d90565b92508282019050808211156124305761242f6122c7565b5b92915050565b5f819050919050565b5f67ffffffffffffffff82169050919050565b5f61246c61246761246284612436565b612183565b61243f565b9050919050565b61247c81612452565b82525050565b5f6020820190506124955f830184612473565b92915050565b7f53656e64204554480000000000000000000000000000000000000000000000005f82015250565b5f6124cf60088361210d565b91506124da8261249b565b602082019050919050565b5f6020820190508181035f8301526124fc816124c3565b9050919050565b7f4e487b71000000000000000000000000000000000000000000000000000000005f52601260045260245ffd5b5f61253a82611d90565b915061254583611d90565b92508261255557612554612503565b5b828204905092915050565b5f61256a82611d90565b915061257583611d90565b925082820390508181111561258d5761258c6122c7565b5b92915050565b61259c81611fc2565b81146125a6575f5ffd5b50565b5f815190506125b781612593565b92915050565b5f602082840312156125d2576125d1611dca565b5b5f6125df848285016125a9565b9150509291505056fea2646970667358221220563760650414bddf8d9fa63d3fadc78cabb64c1663d51090386240a6c13b48c864736f6c63430008210033",
    "linkReferences": {}
  },
  "methodIdentifiers": {
    "MINER_COST()": "15418268",
    "UPGRADE_INTERFACE_VERSION()": "ad3cb1cc",
    "buyMiner(uint256)": "62de3bd1",
    "buyTokens()": "d0febe4c",
    "claim()": "4e71d92d",
    "feeIndex()": "29864547",
    "initialize(address)": "c4d66de8",
    "lastUpdate()": "c0463711",
    "owner()": "8da5cb5b",
    "pause()": "8456cb59",
    "paused()": "5c975abb",
    "pendingReward(address)": "f40f0f52",
    "proxiableUUID()": "52d1902d",
    "rate()": "2c4e722e",
    "renounceOwnership()": "715018a6",
    "rewardIndex()": "e9ee2fa9",
    "setTreasury(address)": "f0f44260",
    "token()": "fc0c546a",
    "transferOwnership(address)": "f2fde38b",
    "treasury()": "61d027b3",
    "unpause()": "3f4ba83a",
    "upgradeToAndCall(address,bytes)": "4f1ef286",
    "users(address)": "a87430ba"
  },
  "id": 43
}