{
  "abi": [
    {
      "type": "constructor",
      "inputs": [],
      "stateMutability": "nonpayable"
    },
    {
      "type": "function",
      "name": "MINER_COST",
      "inputs": [],
      "outputs": [
        {
          "name": "",
          "type": "uint256",
          "internalType": "uint256"
        }
      ],
      "stateMutability": "view"
    },
    {
      "type": "function",
      "name": "UPGRADE_INTERFACE_VERSION",
      "inputs": [],
      "outputs": [
        {
          "name": "",
          "type": "string",
          "internalType": "string"
        }
      ],
      "stateMutability": "view"
    },
    {
      "type": "function",
      "name": "buyMiner",
      "inputs": [
        {
          "name": "quantity",
          "type": "uint256",
          "internalType": "uint256"
        }
      ],
      "outputs": [],
      "stateMutability": "nonpayable"
    },
    {
      "type": "function",
      "name": "buyTokens",
      "inputs": [],
      "outputs": [],
      "stateMutability": "payable"
    },
    {
      "type": "function",
      "name": "claim",
      "inputs": [],
      "outputs": [],
      "stateMutability": "nonpayable"
    },
    {
      "type": "function",
      "name": "feeIndex",
      "inputs": [],
      "outputs": [
        {
          "name": "",
          "type": "uint256",
          "internalType": "uint256"
        }
      ],
      "stateMutability": "view"
    },
    {
      "type": "function",
      "name": "initialize",
      "inputs": [
        {
          "name": "_token",
          "type": "address",
          "internalType": "address"
        }
      ],
      "outputs": [],
      "stateMutability": "nonpayable"
    },
    {
      "type": "function",
      "name": "lastUpdate",
      "inputs": [],
      "outputs": [
        {
          "name": "",
          "type": "uint256",
          "internalType": "uint256"
        }
      ],
      "stateMutability": "view"
    },
    {
      "type": "function",
      "name": "owner",
      "inputs": [],
      "outputs": [
        {
          "name": "",
          "type": "address",
          "internalType": "address"
        }
      ],
      "stateMutability": "view"
    },
    {
      "type": "function",
      "name": "pause",
      "inputs": [],
      "outputs": [],
      "stateMutability": "nonpayable"
    },
    {
      "type": "function",
      "name": "paused",
      "inputs": [],
      "outputs": [
        {
          "name": "",
          "type": "bool",
          "internalType": "bool"
        }
      ],
      "stateMutability": "view"
    },
    {
      "type": "function",
      "name": "pendingReward",
      "inputs": [
        {
          "name": "userAddr",
          "type": "address",
          "internalType": "address"
        }
      ],
      "outputs": [
        {
          "name": "",
          "type": "uint256",
          "internalType": "uint256"
        }
      ],
      "stateMutability": "view"
    },
    {
      "type": "function",
      "name": "proxiableUUID",
      "inputs": [],
      "outputs": [
        {
          "name": "",
          "type": "bytes32",
          "internalType": "bytes32"
        }
      ],
      "stateMutability": "view"
    },
    {
      "type": "function",
      "name": "rate",
      "inputs": [],
      "outputs": [
        {
          "name": "",
          "type": "uint256",
          "internalType": "uint256"
        }
      ],
      "stateMutability": "view"
    },
    {
      "type": "function",
      "name": "renounceOwnership",
      "inputs": [],
      "outputs": [],
      "stateMutability": "nonpayable"
    },
    {
      "type": "function",
      "name": "rewardIndex",
      "inputs": [],
      "outputs": [
        {
          "name": "",
          "type": "uint256",
          "internalType": "uint256"
        }
      ],
      "stateMutability": "view"
    },
    {
      "type": "function",
      "name": "setTreasury",
      "inputs": [
        {
          "name": "_treasury",
          "type": "address",
          "internalType": "address"
        }
      ],
      "outputs": [],
      "stateMutability": "nonpayable"
    },
    {
      "type": "function",
      "name": "token",
      "inputs": [],
      "outputs": [
        {
          "name": "",
          "type": "address",
          "internalType": "contract GBNToken"
        }
      ],
      "stateMutability": "view"
    },
    {
      "type": "function",
      "name": "transferOwnership",
      "inputs": [
        {
          "name": "newOwner",
          "type": "address",
          "internalType": "address"
        }
      ],
      "outputs": [],
      "stateMutability": "nonpayable"
    },
    {
      "type": "function",
      "name": "treasury",
      "inputs": [],
      "outputs": [
        {
          "name": "",
          "type": "address",
          "internalType": "address"
        }
      ],
      "stateMutability": "view"
    },
    {
      "type": "function",
      "name": "unpause",
      "inputs": [],
      "outputs": [],
      "stateMutability": "nonpayable"
    },
    {
      "type": "function",
      "name": "upgradeToAndCall",
      "inputs": [
        {
          "name": "newImplementation",
          "type": "address",
          "internalType": "address"
        },
        {
          "name": "data",
          "type": "bytes",
          "internalType": "bytes"
        }
      ],
      "outputs": [],
      "stateMutability": "payable"
    },
    {
      "type": "function",
      "name": "users",
      "inputs": [
        {
          "name": "",
          "type": "address",
          "internalType": "address"
        }
      ],
      "outputs": [
        {
          "name": "miners",
          "type": "uint256",
          "internalType": "uint256"
        },
        {
          "name": "rewardDebt",
          "type": "uint256",
          "internalType": "uint256"
        },
        {
          "name": "feeDebt",
          "type": "uint256",
          "internalType": "uint256"
        }
      ],
      "stateMutability": "view"
    },
    {
      "type": "event",
      "name": "Initialized",
      "inputs": [
        {
          "name": "version",
          "type": "uint64",
          "indexed": false,
          "internalType": "uint64"
        }
      ],
      "anonymous": false
    },
    {
      "type": "event",
      "name": "MinerPurchased",
      "inputs": [
        {
          "name": "user",
          "type": "address",
          "indexed": true,
          "internalType": "address"
        },
        {
          "name": "quantity",
          "type": "uint256",
          "indexed": false,
          "internalType": "uint256"
        },
        {
          "name": "totalMiners",
          "type": "uint256",
          "indexed": false,
          "internalType": "uint256"
        }
      ],
      "anonymous": false
    },
    {
      "type": "event",
      "name": "OwnershipTransferred",
      "inputs": [
        {
          "name": "previousOwner",
          "type": "address",
          "indexed": true,
          "internalType": "address"
        },
        {
          "name": "newOwner",
          "type": "address",
          "indexed": true,
          "internalType": "address"
        }
      ],
      "anonymous": false
    },
    {
      "type": "event",
      "name": "Paused",
      "inputs": [
        {
          "name": "account",
          "type": "address",
          "indexed": false,
          "internalType": "address"
        }
      ],
      "anonymous": false
    },
    {
      "type": "event",
      "name": "Unpaused",
      "inputs": [
        {
          "name": "account",
          "type": "address",
          "indexed": false,
          "internalType": "address"
        }
      ],
      "anonymous": false
    },
    {
      "type": "event",
      "name": "Upgraded",
      "inputs": [
        {
          "name": "implementation",
          "type": "address",
          "indexed": true,
          "internalType": "address"
        }
      ],
      "anonymous": false
    },
    {
      "type": "error",
      "name": "AddressEmptyCode",
      "inputs": [
        {
          "name": "target",
          "type": "address",
          "internalType": "address"
        }
      ]
    },
    {
      "type": "error",
      "name": "ERC1967InvalidImplementation",
      "inputs": [
        {
          "name": "implementation",
          "type": "address",
          "internalType": "address"
        }
      ]
    },
    {
      "type": "error",
      "name": "ERC1967NonPayable",
      "inputs": []
    },
    {
      "type": "error",
      "name": "EnforcedPause",
      "inputs": []
    },
    {
      "type": "error",
      "name": "ExpectedPause",
      "inputs": []
    },
    {
      "type": "error",
      "name": "FailedCall",
      "inputs": []
    },
    {
      "type": "error",
      "name": "InvalidInitialization",
      "inputs": []
    },
    {
      "type": "error",
      "name": "NotInitializing",
      "inputs": []
    },
    {
      "type": "error",
      "name": "OwnableInvalidOwner",
      "inputs": [
        {
          "name": "owner",
          "type": "address",
          "internalType": "address"
        }
      ]
    },
    {
      "type": "error",
      "name": "OwnableUnauthorizedAccount",
      "inputs": [
        {
          "name": "account",
          "type": "address",
          "internalType": "address"
        }
      ]
    },
    {
      "type": "error",
      "name": "UUPSUnauthorizedCallContext",
      "inputs": []
    },
    {
      "type": "error",
      "name": "UUPSUnsupportedProxiableUUID",
      "inputs": [
        {
          "name": "slot",
          "type": "bytes32",
          "internalType": "bytes32"
        }
      ]
    }
  ],
  "bytecode": {
    "object": "0x60a06040523073ffffffffffffffffffffffffffffffffffffffff1660809073ffffffffffffffffffffffffffffffffffffffff16815250348015610042575f5ffd5b5061005161005660201b60201c565b6101d1565b5f61006561015460201b60201c565b9050805f0160089054906101000a900460ff16156100af576040517ff92ee8a900000000000000000000000000000000000000000000000000000000815260040160405180910390fd5b67ffffffffffffffff8016815f015f9054906101000a900467ffffffffffffffff1667ffffffffffffffff16146101515767ffffffffffffffff815f015f6101000a81548167ffffffffffffffff021916908367ffffffffffffffff1602179055507fc7f505b2f371ae2175ee4913f4499e1f2633a7b5936321eed1cdaeb6115181d267ffffffffffffffff60405161014891906101b8565b60405180910390a15b50565b5f5f61016461016d60201b60201c565b90508091505090565b5f7ff0c57e16840df040f15088dc2f81fe391c3923bec73e23a9662efc9c229c6a005f1b905090565b5f67ffffffffffffffff82169050919050565b6101b281610196565b82525050565b5f6020820190506101cb5f8301846101a9565b92915050565b6080516126986101f75f395f81816115370152818161158c015261174601526126985ff3fe60806040526004361061013f575f3560e01c80638456cb59116100b5578063d0febe4c1161006e578063d0febe4c146103bf578063e9ee2fa9146103c9578063f0f44260146103f3578063f2fde38b1461041b578063f40f0f5214610443578063fc0c546a1461047f5761013f565b80638456cb59146102c55780638da5cb5b146102db578063a87430ba14610305578063ad3cb1cc14610343578063c04637111461036d578063c4d66de8146103975761013f565b80634f1ef286116101075780634f1ef286146101ed57806352d1902d146102095780635c975abb1461023357806361d027b31461025d57806362de3bd114610287578063715018a6146102af5761013f565b80631541826814610143578063298645471461016d5780632c4e722e146101975780633f4ba83a146101c15780634e71d92d146101d7575b5f5ffd5b34801561014e575f5ffd5b506101576104a9565b6040516101649190611dfb565b60405180910390f35b348015610178575f5ffd5b506101816104b6565b60405161018e9190611dfb565b60405180910390f35b3480156101a2575f5ffd5b506101ab6104bc565b6040516101b89190611dfb565b60405180910390f35b3480156101cc575f5ffd5b506101d56104c2565b005b3480156101e2575f5ffd5b506101eb6104d4565b005b61020760048036038101906102029190611fbb565b610570565b005b348015610214575f5ffd5b5061021d61058f565b60405161022a919061202d565b60405180910390f35b34801561023e575f5ffd5b506102476105c0565b6040516102549190612060565b60405180910390f35b348015610268575f5ffd5b506102716105e2565b60405161027e9190612088565b60405180910390f35b348015610292575f5ffd5b506102ad60048036038101906102a891906120cb565b610607565b005b3480156102ba575f5ffd5b506102c36108bf565b005b3480156102d0575f5ffd5b506102d96108d2565b005b3480156102e6575f5ffd5b506102ef6108e4565b6040516102fc9190612088565b60405180910390f35b348015610310575f5ffd5b5061032b600480360381019061032691906120f6565b610919565b60405161033a93929190612121565b60405180910390f35b34801561034e575f5ffd5b5061035761093f565b60405161036491906121b6565b60405180910390f35b348015610378575f5ffd5b50610381610978565b60405161038e9190611dfb565b60405180910390f35b3480156103a2575f5ffd5b506103bd60048036038101906103b891906120f6565b61097e565b005b6103c7610b96565b005b3480156103d4575f5ffd5b506103dd610c7c565b6040516103ea9190611dfb565b60405180910390f35b3480156103fe575f5ffd5b50610419600480360381019061041491906120f6565b610c82565b005b348015610426575f5ffd5b50610441600480360381019061043c91906120f6565b610ccd565b005b34801561044e575f5ffd5b50610469600480360381019061046491906120f6565b610d51565b6040516104769190611dfb565b60405180910390f35b34801561048a575f5ffd5b50610493610eed565b6040516104a09190612231565b60405180910390f35b68056bc75e2d6310000081565b60035481565b60015481565b6104ca610f11565b6104d2610f98565b565b6104dc611006565b5f60065f3373ffffffffffffffffffffffffffffffffffffffff1673ffffffffffffffffffffffffffffffffffffffff1681526020019081526020015f205f01541161055d576040517f08c379a000000000000000000000000000000000000000000000000000000000815260040161055490612294565b60405180910390fd5b610565611047565b61056e336111ea565b565b610578611535565b6105818261161b565b61058b8282611626565b5050565b5f610598611744565b7f360894a13ba1a3210667c828492db98dca3e2076cc3735a920a3ca505d382bbc5f1b905090565b5f5f6105ca6117cb565b9050805f015f9054906101000a900460ff1691505090565b60055f9054906101000a900473ffffffffffffffffffffffffffffffffffffffff1681565b61060f611006565b5f8111610651576040517f08c379a0000000000000000000000000000000000000000000000000000000008152600401610648906122fc565b60405180910390fd5b5f8168056bc75e2d631000006106679190612347565b9050805f5f9054906101000a900473ffffffffffffffffffffffffffffffffffffffff1673ffffffffffffffffffffffffffffffffffffffff166370a08231336040518263ffffffff1660e01b81526004016106c39190612088565b602060405180830381865afa1580156106de573d5f5f3e3d5ffd5b505050506040513d601f19601f82011682018060405250810190610702919061239c565b1015610743576040517f08c379a000000000000000000000000000000000000000000000000000000000815260040161073a90612411565b60405180910390fd5b61074b611047565b5f60065f3373ffffffffffffffffffffffffffffffffffffffff1673ffffffffffffffffffffffffffffffffffffffff1681526020019081526020015f209050610794336111ea565b5f5f9054906101000a900473ffffffffffffffffffffffffffffffffffffffff1673ffffffffffffffffffffffffffffffffffffffff166379cc679033846040518363ffffffff1660e01b81526004016107ef92919061242f565b5f604051808303815f87803b158015610806575f5ffd5b505af1158015610818573d5f5f3e3d5ffd5b5050505082815f015f82825461082e9190612456565b92505081905550600254815f01546108469190612347565b8160010181905550600354815f015461085f9190612347565b81600201819055503373ffffffffffffffffffffffffffffffffffffffff167fb66874f8db387f88e98065ccaab7a61a6dd40d49bcc133534b36ee8332deee0284835f01546040516108b2929190612489565b60405180910390a2505050565b6108c7610f11565b6108d05f6117f2565b565b6108da610f11565b6108e26118c3565b565b5f5f6108ee611932565b9050805f015f9054906101000a900473ffffffffffffffffffffffffffffffffffffffff1691505090565b6006602052805f5260405f205f91509050805f0154908060010154908060020154905083565b6040518060400160405280600581526020017f352e302e3000000000000000000000000000000000000000000000000000000081525081565b60045481565b5f610987611959565b90505f815f0160089054906101000a900460ff161590505f825f015f9054906101000a900467ffffffffffffffff1690505f5f8267ffffffffffffffff161480156109cf5750825b90505f60018367ffffffffffffffff16148015610a0257505f3073ffffffffffffffffffffffffffffffffffffffff163b145b905081158015610a10575080155b15610a47576040517ff92ee8a900000000000000000000000000000000000000000000000000000000815260040160405180910390fd5b6001855f015f6101000a81548167ffffffffffffffff021916908367ffffffffffffffff1602179055508315610a94576001855f0160086101000a81548160ff0219169083151502179055505b610a9d3361196c565b610aa5611980565b855f5f6101000a81548173ffffffffffffffffffffffffffffffffffffffff021916908373ffffffffffffffffffffffffffffffffffffffff1602179055506103e8600181905550426004819055503360055f6101000a81548173ffffffffffffffffffffffffffffffffffffffff021916908373ffffffffffffffffffffffffffffffffffffffff1602179055508315610b8e575f855f0160086101000a81548160ff0219169083151502179055507fc7f505b2f371ae2175ee4913f4499e1f2633a7b5936321eed1cdaeb6115181d26001604051610b8591906124fc565b60405180910390a15b505050505050565b610b9e611006565b5f3411610be0576040517f08c379a0000000000000000000000000000000000000000000000000000000008152600401610bd79061255f565b60405180910390fd5b5f60015434610bef9190612347565b90505f5f9054906101000a900473ffffffffffffffffffffffffffffffffffffffff1673ffffffffffffffffffffffffffffffffffffffff166340c10f1933836040518363ffffffff1660e01b8152600401610c4c92919061242f565b5f604051808303815f87803b158015610c63575f5ffd5b505af1158015610c75573d5f5f3e3d5ffd5b5050505050565b60025481565b610c8a610f11565b8060055f6101000a81548173ffffffffffffffffffffffffffffffffffffffff021916908373ffffffffffffffffffffffffffffffffffffffff16021790555050565b610cd5610f11565b5f73ffffffffffffffffffffffffffffffffffffffff168173ffffffffffffffffffffffffffffffffffffffff1603610d45575f6040517f1e4fbdf7000000000000000000000000000000000000000000000000000000008152600401610d3c9190612088565b60405180910390fd5b610d4e816117f2565b50565b5f5f60065f8473ffffffffffffffffffffffffffffffffffffffff1673ffffffffffffffffffffffffffffffffffffffff1681526020019081526020015f206040518060600160405290815f82015481526020016001820154815260200160028201548152505090505f683635c9adc5dea000005f5f9054906101000a900473ffffffffffffffffffffffffffffffffffffffff1673ffffffffffffffffffffffffffffffffffffffff166318160ddd6040518163ffffffff1660e01b8152600401602060405180830381865afa158015610e2e573d5f5f3e3d5ffd5b505050506040513d601f19601f82011682018060405250810190610e52919061239c565b610e5c91906125aa565b90505f816103e8610e6d9190612456565b686c6b935b8bbd400000610e8191906125aa565b90505f60045442610e9291906125da565b90505f620151808284610ea59190612347565b610eaf91906125aa565b600254610ebc9190612456565b90505f81865f0151610ece9190612347565b9050856020015181610ee091906125da565b9650505050505050919050565b5f5f9054906101000a900473ffffffffffffffffffffffffffffffffffffffff1681565b610f1961198a565b73ffffffffffffffffffffffffffffffffffffffff16610f376108e4565b73ffffffffffffffffffffffffffffffffffffffff1614610f9657610f5a61198a565b6040517f118cdaa7000000000000000000000000000000000000000000000000000000008152600401610f8d9190612088565b60405180910390fd5b565b610fa0611991565b5f610fa96117cb565b90505f815f015f6101000a81548160ff0219169083151502179055507f5db9ee0a495bf2e6ff9c91a7834c1ba4fdd244a5e8aa4e537bd38aeae4b073aa610fee61198a565b604051610ffb9190612088565b60405180910390a150565b61100e6105c0565b15611045576040517fd93c066500000000000000000000000000000000000000000000000000000000815260040160405180910390fd5b565b5f6004544261105691906125da565b90505f810361106557506111e8565b5f683635c9adc5dea000005f5f9054906101000a900473ffffffffffffffffffffffffffffffffffffffff1673ffffffffffffffffffffffffffffffffffffffff166318160ddd6040518163ffffffff1660e01b8152600401602060405180830381865afa1580156110d9573d5f5f3e3d5ffd5b505050506040513d601f19601f820116820180604052508101906110fd919061239c565b61110791906125aa565b90505f671bc16d674ec8000090505f670de0b6b3a764000090505f836103e86111309190612456565b6103e88461113e9190612347565b61114891906125aa565b90505f600a670de0b6b3a7640000866111619190612347565b61116b91906125aa565b836111769190612456565b90506201518086836111889190612347565b61119291906125aa565b60025f8282546111a29190612456565b925050819055506201518086826111b99190612347565b6111c391906125aa565b60035f8282546111d39190612456565b92505081905550426004819055505050505050505b565b5f60065f8373ffffffffffffffffffffffffffffffffffffffff1673ffffffffffffffffffffffffffffffffffffffff1681526020019081526020015f2090505f815f01540361123a5750611532565b5f600254825f015461124c9190612347565b90505f600354835f01546112609190612347565b90505f83600101548361127391906125da565b90505f84600201548361128691906125da565b90508385600101819055508285600201819055505f82111561132b575f5f9054906101000a900473ffffffffffffffffffffffffffffffffffffffff1673ffffffffffffffffffffffffffffffffffffffff166340c10f1987846040518363ffffffff1660e01b81526004016112fd92919061242f565b5f604051808303815f87803b158015611314575f5ffd5b505af1158015611326573d5f5f3e3d5ffd5b505050505b5f81111561152c575f60646032836113439190612347565b61134d91906125aa565b90505f818361135c91906125da565b90505f811115611410575f5f9054906101000a900473ffffffffffffffffffffffffffffffffffffffff1673ffffffffffffffffffffffffffffffffffffffff166340c10f1960055f9054906101000a900473ffffffffffffffffffffffffffffffffffffffff16836040518363ffffffff1660e01b81526004016113e292919061242f565b5f604051808303815f87803b1580156113f9575f5ffd5b505af115801561140b573d5f5f3e3d5ffd5b505050505b5f821115611529575f5f9054906101000a900473ffffffffffffffffffffffffffffffffffffffff1673ffffffffffffffffffffffffffffffffffffffff166340c10f1930846040518363ffffffff1660e01b815260040161147392919061242f565b5f604051808303815f87803b15801561148a575f5ffd5b505af115801561149c573d5f5f3e3d5ffd5b505050505f5f9054906101000a900473ffffffffffffffffffffffffffffffffffffffff1673ffffffffffffffffffffffffffffffffffffffff166379cc679030846040518363ffffffff1660e01b81526004016114fb92919061242f565b5f604051808303815f87803b158015611512575f5ffd5b505af1158015611524573d5f5f3e3d5ffd5b505050505b50505b50505050505b50565b7f000000000000000000000000000000000000000000000000000000000000000073ffffffffffffffffffffffffffffffffffffffff163073ffffffffffffffffffffffffffffffffffffffff1614806115e257507f000000000000000000000000000000000000000000000000000000000000000073ffffffffffffffffffffffffffffffffffffffff166115c96119d1565b73ffffffffffffffffffffffffffffffffffffffff1614155b15611619576040517fe07c8dba00000000000000000000000000000000000000000000000000000000815260040160405180910390fd5b565b611623610f11565b50565b8173ffffffffffffffffffffffffffffffffffffffff166352d1902d6040518163ffffffff1660e01b8152600401602060405180830381865afa92505050801561168e57506040513d601f19601f8201168201806040525081019061168b9190612637565b60015b6116cf57816040517f4c9c8ce30000000000000000000000000000000000000000000000000000000081526004016116c69190612088565b60405180910390fd5b7f360894a13ba1a3210667c828492db98dca3e2076cc3735a920a3ca505d382bbc5f1b811461173557806040517faa1d49a400000000000000000000000000000000000000000000000000000000815260040161172c919061202d565b60405180910390fd5b61173f8383611a24565b505050565b7f000000000000000000000000000000000000000000000000000000000000000073ffffffffffffffffffffffffffffffffffffffff163073ffffffffffffffffffffffffffffffffffffffff16146117c9576040517fe07c8dba00000000000000000000000000000000000000000000000000000000815260040160405180910390fd5b565b5f7fcd5ed15c6e187e77e9aee88184c21f4f2182ab5827cb3b7e07fbedcd63f03300905090565b5f6117fb611932565b90505f815f015f9054906101000a900473ffffffffffffffffffffffffffffffffffffffff16905082825f015f6101000a81548173ffffffffffffffffffffffffffffffffffffffff021916908373ffffffffffffffffffffffffffffffffffffffff1602179055508273ffffffffffffffffffffffffffffffffffffffff168173ffffffffffffffffffffffffffffffffffffffff167f8be0079c531659141344cd1fd0a4f28419497f9722a3daafe3b4186f6b6457e060405160405180910390a3505050565b6118cb611006565b5f6118d46117cb565b90506001815f015f6101000a81548160ff0219169083151502179055507f62e78cea01bee320cd4e420270b5ea74000d11b0c9f74754ebdbfc544b05a25861191a61198a565b6040516119279190612088565b60405180910390a150565b5f7f9016d09d72d40fdae2fd8ceac6b6234c7706214fd39c1cd1e609a0528c199300905090565b5f5f611963611a96565b90508091505090565b611974611abf565b61197d81611aff565b50565b611988611abf565b565b5f33905090565b6119996105c0565b6119cf576040517f8dfc202b00000000000000000000000000000000000000000000000000000000815260040160405180910390fd5b565b5f6119fd7f360894a13ba1a3210667c828492db98dca3e2076cc3735a920a3ca505d382bbc5f1b611b83565b5f015f9054906101000a900473ffffffffffffffffffffffffffffffffffffffff16905090565b611a2d82611b8c565b8173ffffffffffffffffffffffffffffffffffffffff167fbc7cd75a20ee27fd9adebab32041f755214dbc6bffa90cc0225b39da2e5c2d3b60405160405180910390a25f81511115611a8957611a838282611c55565b50611a92565b611a91611d46565b5b5050565b5f7ff0c57e16840df040f15088dc2f81fe391c3923bec73e23a9662efc9c229c6a005f1b905090565b611ac7611d82565b611afd576040517fd7e6bcf800000000000000000000000000000000000000000000000000000000815260040160405180910390fd5b565b611b07611abf565b5f73ffffffffffffffffffffffffffffffffffffffff168173ffffffffffffffffffffffffffffffffffffffff1603611b77575f6040517f1e4fbdf7000000000000000000000000000000000000000000000000000000008152600401611b6e9190612088565b60405180910390fd5b611b80816117f2565b50565b5f819050919050565b5f8173ffffffffffffffffffffffffffffffffffffffff163b03611be757806040517f4c9c8ce3000000000000000000000000000000000000000000000000000000008152600401611bde9190612088565b60405180910390fd5b80611c137f360894a13ba1a3210667c828492db98dca3e2076cc3735a920a3ca505d382bbc5f1b611b83565b5f015f6101000a81548173ffffffffffffffffffffffffffffffffffffffff021916908373ffffffffffffffffffffffffffffffffffffffff16021790555050565b60605f611c628484611da0565b9050808015611c9857505f611c75611db4565b1180611c9757505f8473ffffffffffffffffffffffffffffffffffffffff163b115b5b15611cad57611ca5611dbb565b915050611d40565b8015611cf057836040517f9996b315000000000000000000000000000000000000000000000000000000008152600401611ce79190612088565b60405180910390fd5b5f611cf9611db4565b1115611d0c57611d07611dd8565b611d3e565b6040517fd6bda27500000000000000000000000000000000000000000000000000000000815260040160405180910390fd5b505b92915050565b5f341115611d80576040517fb398979f00000000000000000000000000000000000000000000000000000000815260040160405180910390fd5b565b5f611d8b611959565b5f0160089054906101000a900460ff16905090565b5f5f5f835160208501865af4905092915050565b5f3d905090565b606060405190503d81523d5f602083013e3d602001810160405290565b6040513d5f823e3d81fd5b5f819050919050565b611df581611de3565b82525050565b5f602082019050611e0e5f830184611dec565b92915050565b5f604051905090565b5f5ffd5b5f5ffd5b5f73ffffffffffffffffffffffffffffffffffffffff82169050919050565b5f611e4e82611e25565b9050919050565b611e5e81611e44565b8114611e68575f5ffd5b50565b5f81359050611e7981611e55565b92915050565b5f5ffd5b5f5ffd5b5f601f19601f8301169050919050565b7f4e487b71000000000000000000000000000000000000000000000000000000005f52604160045260245ffd5b611ecd82611e87565b810181811067ffffffffffffffff82111715611eec57611eeb611e97565b5b80604052505050565b5f611efe611e14565b9050611f0a8282611ec4565b919050565b5f67ffffffffffffffff821115611f2957611f28611e97565b5b611f3282611e87565b9050602081019050919050565b828183375f83830152505050565b5f611f5f611f5a84611f0f565b611ef5565b905082815260208101848484011115611f7b57611f7a611e83565b5b611f86848285611f3f565b509392505050565b5f82601f830112611fa257611fa1611e7f565b5b8135611fb2848260208601611f4d565b91505092915050565b5f5f60408385031215611fd157611fd0611e1d565b5b5f611fde85828601611e6b565b925050602083013567ffffffffffffffff811115611fff57611ffe611e21565b5b61200b85828601611f8e565b9150509250929050565b5f819050919050565b61202781612015565b82525050565b5f6020820190506120405f83018461201e565b92915050565b5f8115159050919050565b61205a81612046565b82525050565b5f6020820190506120735f830184612051565b92915050565b61208281611e44565b82525050565b5f60208201905061209b5f830184612079565b92915050565b6120aa81611de3565b81146120b4575f5ffd5b50565b5f813590506120c5816120a1565b92915050565b5f602082840312156120e0576120df611e1d565b5b5f6120ed848285016120b7565b91505092915050565b5f6020828403121561210b5761210a611e1d565b5b5f61211884828501611e6b565b91505092915050565b5f6060820190506121345f830186611dec565b6121416020830185611dec565b61214e6040830184611dec565b949350505050565b5f81519050919050565b5f82825260208201905092915050565b8281835e5f83830152505050565b5f61218882612156565b6121928185612160565b93506121a2818560208601612170565b6121ab81611e87565b840191505092915050565b5f6020820190508181035f8301526121ce818461217e565b905092915050565b5f819050919050565b5f6121f96121f46121ef84611e25565b6121d6565b611e25565b9050919050565b5f61220a826121df565b9050919050565b5f61221b82612200565b9050919050565b61222b81612211565b82525050565b5f6020820190506122445f830184612222565b92915050565b7f4275792061206d696e65722066697273740000000000000000000000000000005f82015250565b5f61227e601183612160565b91506122898261224a565b602082019050919050565b5f6020820190508181035f8301526122ab81612272565b9050919050565b7f5175616e74697479206d7573742062652067726561746572207468616e2030005f82015250565b5f6122e6601f83612160565b91506122f1826122b2565b602082019050919050565b5f6020820190508181035f830152612313816122da565b9050919050565b7f4e487b71000000000000000000000000000000000000000000000000000000005f52601160045260245ffd5b5f61235182611de3565b915061235c83611de3565b925082820261236a81611de3565b915082820484148315176123815761238061231a565b5b5092915050565b5f81519050612396816120a1565b92915050565b5f602082840312156123b1576123b0611e1d565b5b5f6123be84828501612388565b91505092915050565b7f496e73756666696369656e742047424e2062616c616e636500000000000000005f82015250565b5f6123fb601883612160565b9150612406826123c7565b602082019050919050565b5f6020820190508181035f830152612428816123ef565b9050919050565b5f6040820190506124425f830185612079565b61244f6020830184611dec565b9392505050565b5f61246082611de3565b915061246b83611de3565b92508282019050808211156124835761248261231a565b5b92915050565b5f60408201905061249c5f830185611dec565b6124a96020830184611dec565b9392505050565b5f819050919050565b5f67ffffffffffffffff82169050919050565b5f6124e66124e16124dc846124b0565b6121d6565b6124b9565b9050919050565b6124f6816124cc565b82525050565b5f60208201905061250f5f8301846124ed565b92915050565b7f53656e64204554480000000000000000000000000000000000000000000000005f82015250565b5f612549600883612160565b915061255482612515565b602082019050919050565b5f6020820190508181035f8301526125768161253d565b9050919050565b7f4e487b71000000000000000000000000000000000000000000000000000000005f52601260045260245ffd5b5f6125b482611de3565b91506125bf83611de3565b9250826125cf576125ce61257d565b5b828204905092915050565b5f6125e482611de3565b91506125ef83611de3565b92508282039050818111156126075761260661231a565b5b92915050565b61261681612015565b8114612620575f5ffd5b50565b5f815190506126318161260d565b92915050565b5f6020828403121561264c5761264b611e1d565b5b5f61265984828501612623565b9150509291505056fea2646970667358221220d2b5b57a8b7f6082109c77ae0b71ee76dc81ad18740ae06fa229a9aaf5d0eed864736f6c63430008210033",
    "linkReferences": {}
  },
  "methodIdentifiers": {
    "MINER_COST()": "15418268",
    "UPGRADE_INTERFACE_VERSION()": "ad3cb1cc",
    "buyMiner(uint256)": "62de3bd1",
    "buyTokens()": "d0febe4c",
    "claim()": "4e71d92d",
    "feeIndex()": "29864547",
    "initialize(address)": "c4d66de8",
    "lastUpdate()": "c0463711",
    "owner()": "8da5cb5b",
    "pause()": "8456cb59",
    "paused()": "5c975abb",
    "pendingReward(address)": "f40f0f52",
    "proxiableUUID()": "52d1902d",
    "rate()": "2c4e722e",
    "renounceOwnership()": "715018a6",
    "rewardIndex()": "e9ee2fa9",
    "setTreasury(address)": "f0f44260",
    "token()": "fc0c546a",
    "transferOwnership(address)": "f2fde38b",
    "treasury()": "61d027b3",
    "unpause()": "3f4ba83a",
    "upgradeToAndCall(address,bytes)": "4f1ef286",
    "users(address)": "a87430ba"
  },
  "id": 44
}